{
  "abi": [
    {
      "inputs": [
        {
          "internalType": "address",
          "name": "tokenX",
          "type": "address"
        },
        {
          "internalType": "address",
          "name": "tokenY",
          "type": "address"
        }
      ],
      "stateMutability": "nonpayable",
      "type": "constructor"
    },
    {
      "anonymous": false,
      "inputs": [
        {
          "indexed": true,
          "internalType": "address",
          "name": "owner",
          "type": "address"
        },
        {
          "indexed": true,
          "internalType": "address",
          "name": "spender",
          "type": "address"
        },
        {
          "indexed": false,
          "internalType": "uint256",
          "name": "value",
          "type": "uint256"
        }
      ],
      "name": "Approval",
      "type": "event"
    },
    {
      "anonymous": false,
      "inputs": [
        {
          "indexed": true,
          "internalType": "address",
          "name": "from",
          "type": "address"
        },
        {
          "indexed": true,
          "internalType": "address",
          "name": "to",
          "type": "address"
        },
        {
          "indexed": false,
          "internalType": "uint256",
          "name": "value",
          "type": "uint256"
        }
      ],
      "name": "Transfer",
      "type": "event"
    },
    {
      "inputs": [
        {
          "internalType": "uint256",
          "name": "tokenXAmount",
          "type": "uint256"
        },
        {
          "internalType": "uint256",
          "name": "tokenYAmount",
          "type": "uint256"
        },
        {
          "internalType": "uint256",
          "name": "minimumLPTokenAmount",
          "type": "uint256"
        }
      ],
      "name": "addLiquidity",
      "outputs": [
        {
          "internalType": "uint256",
          "name": "LPTokenAmount",
          "type": "uint256"
        }
      ],
      "stateMutability": "nonpayable",
      "type": "function"
    },
    {
      "inputs": [
        {
          "internalType": "address",
          "name": "owner",
          "type": "address"
        },
        {
          "internalType": "address",
          "name": "spender",
          "type": "address"
        }
      ],
      "name": "allowance",
      "outputs": [
        {
          "internalType": "uint256",
          "name": "",
          "type": "uint256"
        }
      ],
      "stateMutability": "view",
      "type": "function"
    },
    {
      "inputs": [
        {
          "internalType": "address",
          "name": "spender",
          "type": "address"
        },
        {
          "internalType": "uint256",
          "name": "amount",
          "type": "uint256"
        }
      ],
      "name": "approve",
      "outputs": [
        {
          "internalType": "bool",
          "name": "",
          "type": "bool"
        }
      ],
      "stateMutability": "nonpayable",
      "type": "function"
    },
    {
      "inputs": [
        {
          "internalType": "address",
          "name": "account",
          "type": "address"
        }
      ],
      "name": "balanceOf",
      "outputs": [
        {
          "internalType": "uint256",
          "name": "",
          "type": "uint256"
        }
      ],
      "stateMutability": "view",
      "type": "function"
    },
    {
      "inputs": [],
      "name": "decimals",
      "outputs": [
        {
          "internalType": "uint8",
          "name": "",
          "type": "uint8"
        }
      ],
      "stateMutability": "view",
      "type": "function"
    },
    {
      "inputs": [
        {
          "internalType": "address",
          "name": "spender",
          "type": "address"
        },
        {
          "internalType": "uint256",
          "name": "subtractedValue",
          "type": "uint256"
        }
      ],
      "name": "decreaseAllowance",
      "outputs": [
        {
          "internalType": "bool",
          "name": "",
          "type": "bool"
        }
      ],
      "stateMutability": "nonpayable",
      "type": "function"
    },
    {
      "inputs": [
        {
          "internalType": "address",
          "name": "spender",
          "type": "address"
        },
        {
          "internalType": "uint256",
          "name": "addedValue",
          "type": "uint256"
        }
      ],
      "name": "increaseAllowance",
      "outputs": [
        {
          "internalType": "bool",
          "name": "",
          "type": "bool"
        }
      ],
      "stateMutability": "nonpayable",
      "type": "function"
    },
    {
      "inputs": [
        {
          "internalType": "address",
          "name": "to",
          "type": "address"
        }
      ],
      "name": "mint",
      "outputs": [
        {
          "internalType": "uint256",
          "name": "liquidity",
          "type": "uint256"
        }
      ],
      "stateMutability": "nonpayable",
      "type": "function"
    },
    {
      "inputs": [],
      "name": "name",
      "outputs": [
        {
          "internalType": "string",
          "name": "",
          "type": "string"
        }
      ],
      "stateMutability": "view",
      "type": "function"
    },
    {
      "inputs": [],
      "name": "price_x",
      "outputs": [
        {
          "internalType": "uint256",
          "name": "",
          "type": "uint256"
        }
      ],
      "stateMutability": "view",
      "type": "function"
    },
    {
      "inputs": [],
      "name": "price_y",
      "outputs": [
        {
          "internalType": "uint256",
          "name": "",
          "type": "uint256"
        }
      ],
      "stateMutability": "view",
      "type": "function"
    },
    {
      "inputs": [
        {
          "internalType": "uint256",
          "name": "LPTokenAmount",
          "type": "uint256"
        },
        {
          "internalType": "uint256",
          "name": "minimumTokenXAmount",
          "type": "uint256"
        },
        {
          "internalType": "uint256",
          "name": "minimumTokenYAmount",
          "type": "uint256"
        }
      ],
      "name": "removeLiquidity",
      "outputs": [
        {
          "internalType": "uint256",
          "name": "rx",
          "type": "uint256"
        },
        {
          "internalType": "uint256",
          "name": "ry",
          "type": "uint256"
        }
      ],
      "stateMutability": "nonpayable",
      "type": "function"
    },
    {
      "inputs": [],
      "name": "reserve_x",
      "outputs": [
        {
          "internalType": "uint256",
          "name": "",
          "type": "uint256"
        }
      ],
      "stateMutability": "view",
      "type": "function"
    },
    {
      "inputs": [],
      "name": "reserve_y",
      "outputs": [
        {
          "internalType": "uint256",
          "name": "",
          "type": "uint256"
        }
      ],
      "stateMutability": "view",
      "type": "function"
    },
    {
      "inputs": [
        {
          "internalType": "uint256",
          "name": "y",
          "type": "uint256"
        }
      ],
      "name": "sqrt",
      "outputs": [
        {
          "internalType": "uint256",
          "name": "z",
          "type": "uint256"
        }
      ],
      "stateMutability": "nonpayable",
      "type": "function"
    },
    {
      "inputs": [
        {
          "internalType": "uint256",
          "name": "tokenXAmount",
          "type": "uint256"
        },
        {
          "internalType": "uint256",
          "name": "tokenYAmount",
          "type": "uint256"
        },
        {
          "internalType": "uint256",
          "name": "tokenMinimumOutputAmount",
          "type": "uint256"
        }
      ],
      "name": "swap",
      "outputs": [
        {
          "internalType": "uint256",
          "name": "outputAmount",
          "type": "uint256"
        }
      ],
      "stateMutability": "nonpayable",
      "type": "function"
    },
    {
      "inputs": [],
      "name": "symbol",
      "outputs": [
        {
          "internalType": "string",
          "name": "",
          "type": "string"
        }
      ],
      "stateMutability": "view",
      "type": "function"
    },
    {
      "inputs": [],
      "name": "token_liquidity_L",
      "outputs": [
        {
          "internalType": "uint256",
          "name": "",
          "type": "uint256"
        }
      ],
      "stateMutability": "view",
      "type": "function"
    },
    {
      "inputs": [],
      "name": "token_x",
      "outputs": [
        {
          "internalType": "address",
          "name": "",
          "type": "address"
        }
      ],
      "stateMutability": "view",
      "type": "function"
    },
    {
      "inputs": [],
      "name": "token_y",
      "outputs": [
        {
          "internalType": "address",
          "name": "",
          "type": "address"
        }
      ],
      "stateMutability": "view",
      "type": "function"
    },
    {
      "inputs": [],
      "name": "totalSupply",
      "outputs": [
        {
          "internalType": "uint256",
          "name": "",
          "type": "uint256"
        }
      ],
      "stateMutability": "view",
      "type": "function"
    },
    {
      "inputs": [
        {
          "internalType": "address",
          "name": "to",
          "type": "address"
        },
        {
          "internalType": "uint256",
          "name": "lpAmount",
          "type": "uint256"
        }
      ],
      "name": "transfer",
      "outputs": [
        {
          "internalType": "bool",
          "name": "",
          "type": "bool"
        }
      ],
      "stateMutability": "nonpayable",
      "type": "function"
    },
    {
      "inputs": [
        {
          "internalType": "address",
          "name": "from",
          "type": "address"
        },
        {
          "internalType": "address",
          "name": "to",
          "type": "address"
        },
        {
          "internalType": "uint256",
          "name": "amount",
          "type": "uint256"
        }
      ],
      "name": "transferFrom",
      "outputs": [
        {
          "internalType": "bool",
          "name": "",
          "type": "bool"
        }
      ],
      "stateMutability": "nonpayable",
      "type": "function"
    }
  ],
  "bytecode": {
    "object": "0x60806040523480156200001157600080fd5b50604051620015b9380380620015b98339810160408190526200003491620001b9565b6040518060400160405280600381526020016244524d60e81b8152506040518060400160405280600b81526020016a222922a0a6afaa27a5a2a760a91b815250816003908162000085919062000296565b50600462000094828262000296565b505050806001600160a01b0316826001600160a01b031603620000f05760405162461bcd60e51b815260206004820152600f60248201526e73616d6520746f6b656e20782c207960881b60448201526064015b60405180910390fd5b6001600160a01b038216158015906200011157506001600160a01b03811615155b6200015f5760405162461bcd60e51b815260206004820152601960248201527f7a65726f206164647265737320746f6b656e2078206f722079000000000000006044820152606401620000e7565b600580546001600160a01b03199081163317909155600680546001600160a01b039485169083161790556007805492909316911617905562000362565b80516001600160a01b0381168114620001b457600080fd5b919050565b60008060408385031215620001cd57600080fd5b620001d8836200019c565b9150620001e8602084016200019c565b90509250929050565b634e487b7160e01b600052604160045260246000fd5b600181811c908216806200021c57607f821691505b6020821081036200023d57634e487b7160e01b600052602260045260246000fd5b50919050565b601f8211156200029157600081815260208120601f850160051c810160208610156200026c5750805b601f850160051c820191505b818110156200028d5782815560010162000278565b5050505b505050565b81516001600160401b03811115620002b257620002b2620001f1565b620002ca81620002c3845462000207565b8462000243565b602080601f831160018114620003025760008415620002e95750858301515b600019600386901b1c1916600185901b1785556200028d565b600085815260208120601f198616915b82811015620003335788860151825594840194600190910190840162000312565b5085821015620003525787850151600019600388901b60f8161c191681555b5050505050600190811b01905550565b61124780620003726000396000f3fe608060405234801561001057600080fd5b506004361061014d5760003560e01c80636a627842116100c3578063a457c2d71161007c578063a457c2d7146102d4578063a9059cbb146102e7578063ca432722146102fd578063dd62ed3e14610306578063e918c90814610319578063ea35bda91461032257600080fd5b80636a6278421461023d57806370a0823114610251578063857620e11461027a57806395d89b41146102a257806396ad6a31146102aa5780639d9892cd146102bd57600080fd5b8063313ce56711610115578063313ce567146101e357806339509351146101f257806339af00ba14610205578063422f10431461020e578063512d897214610221578063677342ce1461022a57600080fd5b806306fdde0314610152578063095ea7b314610170578063143cae491461019357806318160ddd146101be57806323b872dd146101d0575b600080fd5b61015a61032b565b6040516101679190610fed565b60405180910390f35b61018361017e36600461101e565b6103bd565b6040519015158152602001610167565b6007546101a6906001600160a01b031681565b6040516001600160a01b039091168152602001610167565b6002545b604051908152602001610167565b6101836101de366004611048565b6103d7565b60405160128152602001610167565b61018361020036600461101e565b6103fb565b6101c260095481565b6101c261021c366004611084565b61041d565b6101c2600b5481565b6101c26102383660046110b0565b6106db565b6101c261024b3660046110c9565b50600090565b6101c261025f3660046110c9565b6001600160a01b031660009081526020819052604090205490565b61028d610288366004611084565b61074b565b60408051928352602083019190915201610167565b61015a61095c565b6006546101a6906001600160a01b031681565b6101c26102cb366004611084565b60009392505050565b6101836102e236600461101e565b61096b565b6101836102f536600461101e565b600092915050565b6101c260085481565b6101c26103143660046110e4565b6109e6565b6101c2600c5481565b6101c2600a5481565b60606003805461033a90611117565b80601f016020809104026020016040519081016040528092919081815260200182805461036690611117565b80156103b35780601f10610388576101008083540402835291602001916103b3565b820191906000526020600020905b81548152906001019060200180831161039657829003601f168201915b5050505050905090565b6000336103cb818585610a11565b60019150505b92915050565b6000336103e5858285610b36565b6103f0858585610bb0565b506001949350505050565b6000336103cb81858561040e83836109e6565b6104189190611161565b610a11565b600061042860025490565b158061044b575060095460085461043f9190611174565b6104498486611174565b145b6104765760405162461bcd60e51b815260206004820152600060248201526044015b60405180910390fd5b6006546040516323b872dd60e01b8152336004820152306024820152604481018690526000916001600160a01b0316906323b872dd906064016020604051808303816000875af11580156104ce573d6000803e3d6000fd5b505050506040513d601f19601f820116820180604052508101906104f29190611196565b9050806105415760405162461bcd60e51b815260206004820152601b60248201527f746f6b656e2078207472616e7366657246726f6d206661696c65640000000000604482015260640161046d565b6007546040516323b872dd60e01b8152336004820152306024820152604481018690526001600160a01b03909116906323b872dd906064016020604051808303816000875af1158015610598573d6000803e3d6000fd5b505050506040513d601f19601f820116820180604052508101906105bc9190611196565b90508061060b5760405162461bcd60e51b815260206004820152601b60248201527f746f6b656e2079207472616e7366657246726f6d206661696c65640000000000604482015260640161046d565b846008600082825461061d9190611161565b9250508190555083600960008282546106369190611161565b909155505060025460000361065c5761065860095460085461023891906111b8565b600c555b600061066b61023886886111b8565b90508381116106c85760405162461bcd60e51b815260206004820152602360248201527f746f6b656e5f616d6f756e74203e206d696e696d756d4c50546f6b656e416d6f6044820152621d5b9d60ea1b606482015260840161046d565b6106d23382610d54565b95945050505050565b6000600382111561073c57508060006106f5600283611174565b610700906001611161565b90505b818110156107365790508060028161071b8186611174565b6107259190611161565b61072f9190611174565b9050610703565b50919050565b8115610746575060015b919050565b3360009081526020819052604081205481908511156107bb5760405162461bcd60e51b815260206004820152602660248201527f62616c616e63654f66286d73672e73656e64657229203e3d204c50546f6b656e604482015265105b5bdd5b9d60d21b606482015260840161046d565b600254856008546107cc91906111b8565b6107d69190611174565b91506107e160025490565b856009546107ef91906111b8565b6107f99190611174565b905061082d6040518060400160405280600e81526020016d0848484849590b0809590b08095960921b815250868484610e13565b816008600082825461083f91906111cf565b92505081905550806009600082825461085891906111cf565b9091555061086890503386610e5c565b60065460405163a9059cbb60e01b8152336004820152602481018490526001600160a01b039091169063a9059cbb906044016020604051808303816000875af11580156108b9573d6000803e3d6000fd5b505050506040513d601f19601f820116820180604052508101906108dd9190611196565b5060075460405163a9059cbb60e01b8152336004820152602481018390526001600160a01b039091169063a9059cbb906044016020604051808303816000875af115801561092f573d6000803e3d6000fd5b505050506040513d601f19601f820116820180604052508101906109539190611196565b50935093915050565b60606004805461033a90611117565b6000338161097982866109e6565b9050838110156109d95760405162461bcd60e51b815260206004820152602560248201527f45524332303a2064656372656173656420616c6c6f77616e63652062656c6f77604482015264207a65726f60d81b606482015260840161046d565b6103f08286868403610a11565b6001600160a01b03918216600090815260016020908152604080832093909416825291909152205490565b6001600160a01b038316610a735760405162461bcd60e51b8152602060048201526024808201527f45524332303a20617070726f76652066726f6d20746865207a65726f206164646044820152637265737360e01b606482015260840161046d565b6001600160a01b038216610ad45760405162461bcd60e51b815260206004820152602260248201527f45524332303a20617070726f766520746f20746865207a65726f206164647265604482015261737360f01b606482015260840161046d565b6001600160a01b0383811660008181526001602090815260408083209487168084529482529182902085905590518481527f8c5be1e5ebec7d5bd14f71427d1e84f3dd0314c0f7b2291e5b200ac8c7c3b92591015b60405180910390a3505050565b6000610b4284846109e6565b90506000198114610baa5781811015610b9d5760405162461bcd60e51b815260206004820152601d60248201527f45524332303a20696e73756666696369656e7420616c6c6f77616e6365000000604482015260640161046d565b610baa8484848403610a11565b50505050565b6001600160a01b038316610c145760405162461bcd60e51b815260206004820152602560248201527f45524332303a207472616e736665722066726f6d20746865207a65726f206164604482015264647265737360d81b606482015260840161046d565b6001600160a01b038216610c765760405162461bcd60e51b815260206004820152602360248201527f45524332303a207472616e7366657220746f20746865207a65726f206164647260448201526265737360e81b606482015260840161046d565b6001600160a01b03831660009081526020819052604090205481811015610cee5760405162461bcd60e51b815260206004820152602660248201527f45524332303a207472616e7366657220616d6f756e7420657863656564732062604482015265616c616e636560d01b606482015260840161046d565b6001600160a01b03848116600081815260208181526040808320878703905593871680835291849020805487019055925185815290927fddf252ad1be2c89b69c2b068fc378daa952ba7f163c4a11628f55a4df523b3ef910160405180910390a3610baa565b6001600160a01b038216610daa5760405162461bcd60e51b815260206004820152601f60248201527f45524332303a206d696e7420746f20746865207a65726f206164647265737300604482015260640161046d565b8060026000828254610dbc9190611161565b90915550506001600160a01b038216600081815260208181526040808320805486019055518481527fddf252ad1be2c89b69c2b068fc378daa952ba7f163c4a11628f55a4df523b3ef910160405180910390a35050565b610baa84848484604051602401610e2d94939291906111e2565b60408051601f198184030181529190526020810180516001600160e01b03166304772b3360e11b179052610f86565b6001600160a01b038216610ebc5760405162461bcd60e51b815260206004820152602160248201527f45524332303a206275726e2066726f6d20746865207a65726f206164647265736044820152607360f81b606482015260840161046d565b6001600160a01b03821660009081526020819052604090205481811015610f305760405162461bcd60e51b815260206004820152602260248201527f45524332303a206275726e20616d6f756e7420657863656564732062616c616e604482015261636560f01b606482015260840161046d565b6001600160a01b0383166000818152602081815260408083208686039055600280548790039055518581529192917fddf252ad1be2c89b69c2b068fc378daa952ba7f163c4a11628f55a4df523b3ef9101610b29565b80516a636f6e736f6c652e6c6f67602083016000808483855afa5050505050565b6000815180845260005b81811015610fcd57602081850181015186830182015201610fb1565b506000602082860101526020601f19601f83011685010191505092915050565b6020815260006110006020830184610fa7565b9392505050565b80356001600160a01b038116811461074657600080fd5b6000806040838503121561103157600080fd5b61103a83611007565b946020939093013593505050565b60008060006060848603121561105d57600080fd5b61106684611007565b925061107460208501611007565b9150604084013590509250925092565b60008060006060848603121561109957600080fd5b505081359360208301359350604090920135919050565b6000602082840312156110c257600080fd5b5035919050565b6000602082840312156110db57600080fd5b61100082611007565b600080604083850312156110f757600080fd5b61110083611007565b915061110e60208401611007565b90509250929050565b600181811c9082168061112b57607f821691505b60208210810361073657634e487b7160e01b600052602260045260246000fd5b634e487b7160e01b600052601160045260246000fd5b808201808211156103d1576103d161114b565b60008261119157634e487b7160e01b600052601260045260246000fd5b500490565b6000602082840312156111a857600080fd5b8151801515811461100057600080fd5b80820281158282048414176103d1576103d161114b565b818103818111156103d1576103d161114b565b6080815260006111f56080830187610fa7565b602083019590955250604081019290925260609091015291905056fea26469706673582212204429d418ace18b60844f0bf4900626ceab787688dde30ea6c30706a97172738c64736f6c63430008130033",
    "linkReferences": {}
  },
  "methodIdentifiers": {
    "addLiquidity(uint256,uint256,uint256)": "422f1043",
    "allowance(address,address)": "dd62ed3e",
    "approve(address,uint256)": "095ea7b3",
    "balanceOf(address)": "70a08231",
    "decimals()": "313ce567",
    "decreaseAllowance(address,uint256)": "a457c2d7",
    "increaseAllowance(address,uint256)": "39509351",
    "mint(address)": "6a627842",
    "name()": "06fdde03",
    "price_x()": "ea35bda9",
    "price_y()": "512d8972",
    "removeLiquidity(uint256,uint256,uint256)": "857620e1",
    "reserve_x()": "ca432722",
    "reserve_y()": "39af00ba",
    "sqrt(uint256)": "677342ce",
    "swap(uint256,uint256,uint256)": "9d9892cd",
    "symbol()": "95d89b41",
    "token_liquidity_L()": "e918c908",
    "token_x()": "96ad6a31",
    "token_y()": "143cae49",
    "totalSupply()": "18160ddd",
    "transfer(address,uint256)": "a9059cbb",
    "transferFrom(address,address,uint256)": "23b872dd"
  },
  "id": 21
}