{
  "abi": [
    {
      "inputs": [
        {
          "internalType": "address",
          "name": "tokenX",
          "type": "address"
        },
        {
          "internalType": "address",
          "name": "tokenY",
          "type": "address"
        }
      ],
      "stateMutability": "nonpayable",
      "type": "constructor"
    },
    {
      "anonymous": false,
      "inputs": [
        {
          "indexed": true,
          "internalType": "address",
          "name": "owner",
          "type": "address"
        },
        {
          "indexed": true,
          "internalType": "address",
          "name": "spender",
          "type": "address"
        },
        {
          "indexed": false,
          "internalType": "uint256",
          "name": "value",
          "type": "uint256"
        }
      ],
      "name": "Approval",
      "type": "event"
    },
    {
      "anonymous": false,
      "inputs": [
        {
          "indexed": true,
          "internalType": "address",
          "name": "from",
          "type": "address"
        },
        {
          "indexed": true,
          "internalType": "address",
          "name": "to",
          "type": "address"
        },
        {
          "indexed": false,
          "internalType": "uint256",
          "name": "value",
          "type": "uint256"
        }
      ],
      "name": "Transfer",
      "type": "event"
    },
    {
      "inputs": [
        {
          "internalType": "uint256",
          "name": "tokenXAmount",
          "type": "uint256"
        },
        {
          "internalType": "uint256",
          "name": "tokenYAmount",
          "type": "uint256"
        },
        {
          "internalType": "uint256",
          "name": "minimumLPTokenAmount",
          "type": "uint256"
        }
      ],
      "name": "addLiquidity",
      "outputs": [
        {
          "internalType": "uint256",
          "name": "LPTokenAmount",
          "type": "uint256"
        }
      ],
      "stateMutability": "nonpayable",
      "type": "function"
    },
    {
      "inputs": [
        {
          "internalType": "address",
          "name": "owner",
          "type": "address"
        },
        {
          "internalType": "address",
          "name": "spender",
          "type": "address"
        }
      ],
      "name": "allowance",
      "outputs": [
        {
          "internalType": "uint256",
          "name": "",
          "type": "uint256"
        }
      ],
      "stateMutability": "view",
      "type": "function"
    },
    {
      "inputs": [
        {
          "internalType": "address",
          "name": "spender",
          "type": "address"
        },
        {
          "internalType": "uint256",
          "name": "amount",
          "type": "uint256"
        }
      ],
      "name": "approve",
      "outputs": [
        {
          "internalType": "bool",
          "name": "",
          "type": "bool"
        }
      ],
      "stateMutability": "nonpayable",
      "type": "function"
    },
    {
      "inputs": [
        {
          "internalType": "address",
          "name": "account",
          "type": "address"
        }
      ],
      "name": "balanceOf",
      "outputs": [
        {
          "internalType": "uint256",
          "name": "",
          "type": "uint256"
        }
      ],
      "stateMutability": "view",
      "type": "function"
    },
    {
      "inputs": [],
      "name": "decimals",
      "outputs": [
        {
          "internalType": "uint8",
          "name": "",
          "type": "uint8"
        }
      ],
      "stateMutability": "view",
      "type": "function"
    },
    {
      "inputs": [
        {
          "internalType": "address",
          "name": "spender",
          "type": "address"
        },
        {
          "internalType": "uint256",
          "name": "subtractedValue",
          "type": "uint256"
        }
      ],
      "name": "decreaseAllowance",
      "outputs": [
        {
          "internalType": "bool",
          "name": "",
          "type": "bool"
        }
      ],
      "stateMutability": "nonpayable",
      "type": "function"
    },
    {
      "inputs": [
        {
          "internalType": "address",
          "name": "spender",
          "type": "address"
        },
        {
          "internalType": "uint256",
          "name": "addedValue",
          "type": "uint256"
        }
      ],
      "name": "increaseAllowance",
      "outputs": [
        {
          "internalType": "bool",
          "name": "",
          "type": "bool"
        }
      ],
      "stateMutability": "nonpayable",
      "type": "function"
    },
    {
      "inputs": [
        {
          "internalType": "address",
          "name": "to",
          "type": "address"
        }
      ],
      "name": "mint",
      "outputs": [
        {
          "internalType": "uint256",
          "name": "liquidity",
          "type": "uint256"
        }
      ],
      "stateMutability": "nonpayable",
      "type": "function"
    },
    {
      "inputs": [],
      "name": "name",
      "outputs": [
        {
          "internalType": "string",
          "name": "",
          "type": "string"
        }
      ],
      "stateMutability": "view",
      "type": "function"
    },
    {
      "inputs": [],
      "name": "price_x",
      "outputs": [
        {
          "internalType": "uint256",
          "name": "",
          "type": "uint256"
        }
      ],
      "stateMutability": "view",
      "type": "function"
    },
    {
      "inputs": [],
      "name": "price_y",
      "outputs": [
        {
          "internalType": "uint256",
          "name": "",
          "type": "uint256"
        }
      ],
      "stateMutability": "view",
      "type": "function"
    },
    {
      "inputs": [
        {
          "internalType": "uint256",
          "name": "LPTokenAmount",
          "type": "uint256"
        },
        {
          "internalType": "uint256",
          "name": "minimumTokenXAmount",
          "type": "uint256"
        },
        {
          "internalType": "uint256",
          "name": "minimumTokenYAmount",
          "type": "uint256"
        }
      ],
      "name": "removeLiquidity",
      "outputs": [
        {
          "internalType": "uint256",
          "name": "rx",
          "type": "uint256"
        },
        {
          "internalType": "uint256",
          "name": "ry",
          "type": "uint256"
        }
      ],
      "stateMutability": "nonpayable",
      "type": "function"
    },
    {
      "inputs": [],
      "name": "reserve_x",
      "outputs": [
        {
          "internalType": "uint256",
          "name": "",
          "type": "uint256"
        }
      ],
      "stateMutability": "view",
      "type": "function"
    },
    {
      "inputs": [],
      "name": "reserve_y",
      "outputs": [
        {
          "internalType": "uint256",
          "name": "",
          "type": "uint256"
        }
      ],
      "stateMutability": "view",
      "type": "function"
    },
    {
      "inputs": [
        {
          "internalType": "uint256",
          "name": "y",
          "type": "uint256"
        }
      ],
      "name": "sqrt",
      "outputs": [
        {
          "internalType": "uint256",
          "name": "z",
          "type": "uint256"
        }
      ],
      "stateMutability": "nonpayable",
      "type": "function"
    },
    {
      "inputs": [
        {
          "internalType": "uint256",
          "name": "tokenXAmount",
          "type": "uint256"
        },
        {
          "internalType": "uint256",
          "name": "tokenYAmount",
          "type": "uint256"
        },
        {
          "internalType": "uint256",
          "name": "tokenMinimumOutputAmount",
          "type": "uint256"
        }
      ],
      "name": "swap",
      "outputs": [
        {
          "internalType": "uint256",
          "name": "outputAmount",
          "type": "uint256"
        }
      ],
      "stateMutability": "nonpayable",
      "type": "function"
    },
    {
      "inputs": [],
      "name": "symbol",
      "outputs": [
        {
          "internalType": "string",
          "name": "",
          "type": "string"
        }
      ],
      "stateMutability": "view",
      "type": "function"
    },
    {
      "inputs": [],
      "name": "token_liquidity_L",
      "outputs": [
        {
          "internalType": "uint256",
          "name": "",
          "type": "uint256"
        }
      ],
      "stateMutability": "view",
      "type": "function"
    },
    {
      "inputs": [],
      "name": "token_x",
      "outputs": [
        {
          "internalType": "address",
          "name": "",
          "type": "address"
        }
      ],
      "stateMutability": "view",
      "type": "function"
    },
    {
      "inputs": [],
      "name": "token_y",
      "outputs": [
        {
          "internalType": "address",
          "name": "",
          "type": "address"
        }
      ],
      "stateMutability": "view",
      "type": "function"
    },
    {
      "inputs": [],
      "name": "totalSupply",
      "outputs": [
        {
          "internalType": "uint256",
          "name": "",
          "type": "uint256"
        }
      ],
      "stateMutability": "view",
      "type": "function"
    },
    {
      "inputs": [
        {
          "internalType": "address",
          "name": "to",
          "type": "address"
        },
        {
          "internalType": "uint256",
          "name": "lpAmount",
          "type": "uint256"
        }
      ],
      "name": "transfer",
      "outputs": [
        {
          "internalType": "bool",
          "name": "",
          "type": "bool"
        }
      ],
      "stateMutability": "nonpayable",
      "type": "function"
    },
    {
      "inputs": [
        {
          "internalType": "address",
          "name": "from",
          "type": "address"
        },
        {
          "internalType": "address",
          "name": "to",
          "type": "address"
        },
        {
          "internalType": "uint256",
          "name": "amount",
          "type": "uint256"
        }
      ],
      "name": "transferFrom",
      "outputs": [
        {
          "internalType": "bool",
          "name": "",
          "type": "bool"
        }
      ],
      "stateMutability": "nonpayable",
      "type": "function"
    }
  ],
  "bytecode": {
    "object": "0x60806040523480156200001157600080fd5b50604051620011eb380380620011eb8339810160408190526200003491620001b9565b6040518060400160405280600381526020016244524d60e81b8152506040518060400160405280600b81526020016a222922a0a6afaa27a5a2a760a91b815250816003908162000085919062000296565b50600462000094828262000296565b505050806001600160a01b0316826001600160a01b031603620000f05760405162461bcd60e51b815260206004820152600f60248201526e73616d6520746f6b656e20782c207960881b60448201526064015b60405180910390fd5b6001600160a01b038216158015906200011157506001600160a01b03811615155b6200015f5760405162461bcd60e51b815260206004820152601960248201527f7a65726f206164647265737320746f6b656e2078206f722079000000000000006044820152606401620000e7565b600580546001600160a01b03199081163317909155600680546001600160a01b039485169083161790556007805492909316911617905562000362565b80516001600160a01b0381168114620001b457600080fd5b919050565b60008060408385031215620001cd57600080fd5b620001d8836200019c565b9150620001e8602084016200019c565b90509250929050565b634e487b7160e01b600052604160045260246000fd5b600181811c908216806200021c57607f821691505b6020821081036200023d57634e487b7160e01b600052602260045260246000fd5b50919050565b601f8211156200029157600081815260208120601f850160051c810160208610156200026c5750805b601f850160051c820191505b818110156200028d5782815560010162000278565b5050505b505050565b81516001600160401b03811115620002b257620002b2620001f1565b620002ca81620002c3845462000207565b8462000243565b602080601f831160018114620003025760008415620002e95750858301515b600019600386901b1c1916600185901b1785556200028d565b600085815260208120601f198616915b82811015620003335788860151825594840194600190910190840162000312565b5085821015620003525787850151600019600388901b60f8161c191681555b5050505050600190811b01905550565b610e7980620003726000396000f3fe608060405234801561001057600080fd5b506004361061014d5760003560e01c80636a627842116100c3578063a457c2d71161007c578063a457c2d7146102da578063a9059cbb146102ed578063ca43272214610303578063dd62ed3e1461030c578063e918c9081461031f578063ea35bda91461032857600080fd5b80636a6278421461023d57806370a0823114610251578063857620e11461027a57806395d89b41146102a857806396ad6a31146102b05780639d9892cd146102c357600080fd5b8063313ce56711610115578063313ce567146101e357806339509351146101f257806339af00ba14610205578063422f10431461020e578063512d897214610221578063677342ce1461022a57600080fd5b806306fdde0314610152578063095ea7b314610170578063143cae491461019357806318160ddd146101be57806323b872dd146101d0575b600080fd5b61015a610331565b6040516101679190610c26565b60405180910390f35b61018361017e366004610c8b565b6103c3565b6040519015158152602001610167565b6007546101a6906001600160a01b031681565b6040516001600160a01b039091168152602001610167565b6002545b604051908152602001610167565b6101836101de366004610cb5565b6103dd565b60405160128152602001610167565b610183610200366004610c8b565b610401565b6101c260095481565b6101c261021c366004610cf1565b610423565b6101c2600b5481565b6101c2610238366004610d1d565b610700565b6101c261024b366004610d36565b50600090565b6101c261025f366004610d36565b6001600160a01b031660009081526020819052604090205490565b610293610288366004610cf1565b600080935093915050565b60408051928352602083019190915201610167565b61015a610770565b6006546101a6906001600160a01b031681565b6101c26102d1366004610cf1565b60009392505050565b6101836102e8366004610c8b565b61077f565b6101836102fb366004610c8b565b600092915050565b6101c260085481565b6101c261031a366004610d58565b6107fa565b6101c2600c5481565b6101c2600a5481565b60606003805461034090610d8b565b80601f016020809104026020016040519081016040528092919081815260200182805461036c90610d8b565b80156103b95780601f1061038e576101008083540402835291602001916103b9565b820191906000526020600020905b81548152906001019060200180831161039c57829003601f168201915b5050505050905090565b6000336103d1818585610825565b60019150505b92915050565b6000336103eb858285610949565b6103f68585856109c3565b506001949350505050565b6000336103d181858561041483836107fa565b61041e9190610dd5565b610825565b600061042e60025490565b158061045157506009546008546104459190610de8565b61044f8486610de8565b145b61047c5760405162461bcd60e51b815260206004820152600060248201526044015b60405180910390fd5b6006546040516323b872dd60e01b8152336004820152306024820152604481018690526000916001600160a01b0316906323b872dd906064016020604051808303816000875af11580156104d4573d6000803e3d6000fd5b505050506040513d601f19601f820116820180604052508101906104f89190610e0a565b9050806105475760405162461bcd60e51b815260206004820152601b60248201527f746f6b656e2078207472616e7366657246726f6d206661696c656400000000006044820152606401610473565b6007546040516323b872dd60e01b8152336004820152306024820152604481018690526001600160a01b03909116906323b872dd906064016020604051808303816000875af115801561059e573d6000803e3d6000fd5b505050506040513d601f19601f820116820180604052508101906105c29190610e0a565b9050806106115760405162461bcd60e51b815260206004820152601b60248201527f746f6b656e2079207472616e7366657246726f6d206661696c656400000000006044820152606401610473565b84600860008282546106239190610dd5565b92505081905550836009600082825461063c9190610dd5565b9091555050336000908152600d60209081526040808320889055600e90915290208490556002546000036106815761067d6009546008546102389190610e2c565b600c555b60006106906102388688610e2c565b90508381116106ed5760405162461bcd60e51b815260206004820152602360248201527f746f6b656e5f616d6f756e74203e206d696e696d756d4c50546f6b656e416d6f6044820152621d5b9d60ea1b6064820152608401610473565b6106f73382610b67565b95945050505050565b60006003821115610761575080600061071a600283610de8565b610725906001610dd5565b90505b8181101561075b579050806002816107408186610de8565b61074a9190610dd5565b6107549190610de8565b9050610728565b50919050565b811561076b575060015b919050565b60606004805461034090610d8b565b6000338161078d82866107fa565b9050838110156107ed5760405162461bcd60e51b815260206004820152602560248201527f45524332303a2064656372656173656420616c6c6f77616e63652062656c6f77604482015264207a65726f60d81b6064820152608401610473565b6103f68286868403610825565b6001600160a01b03918216600090815260016020908152604080832093909416825291909152205490565b6001600160a01b0383166108875760405162461bcd60e51b8152602060048201526024808201527f45524332303a20617070726f76652066726f6d20746865207a65726f206164646044820152637265737360e01b6064820152608401610473565b6001600160a01b0382166108e85760405162461bcd60e51b815260206004820152602260248201527f45524332303a20617070726f766520746f20746865207a65726f206164647265604482015261737360f01b6064820152608401610473565b6001600160a01b0383811660008181526001602090815260408083209487168084529482529182902085905590518481527f8c5be1e5ebec7d5bd14f71427d1e84f3dd0314c0f7b2291e5b200ac8c7c3b925910160405180910390a3505050565b600061095584846107fa565b905060001981146109bd57818110156109b05760405162461bcd60e51b815260206004820152601d60248201527f45524332303a20696e73756666696369656e7420616c6c6f77616e63650000006044820152606401610473565b6109bd8484848403610825565b50505050565b6001600160a01b038316610a275760405162461bcd60e51b815260206004820152602560248201527f45524332303a207472616e736665722066726f6d20746865207a65726f206164604482015264647265737360d81b6064820152608401610473565b6001600160a01b038216610a895760405162461bcd60e51b815260206004820152602360248201527f45524332303a207472616e7366657220746f20746865207a65726f206164647260448201526265737360e81b6064820152608401610473565b6001600160a01b03831660009081526020819052604090205481811015610b015760405162461bcd60e51b815260206004820152602660248201527f45524332303a207472616e7366657220616d6f756e7420657863656564732062604482015265616c616e636560d01b6064820152608401610473565b6001600160a01b03848116600081815260208181526040808320878703905593871680835291849020805487019055925185815290927fddf252ad1be2c89b69c2b068fc378daa952ba7f163c4a11628f55a4df523b3ef910160405180910390a36109bd565b6001600160a01b038216610bbd5760405162461bcd60e51b815260206004820152601f60248201527f45524332303a206d696e7420746f20746865207a65726f2061646472657373006044820152606401610473565b8060026000828254610bcf9190610dd5565b90915550506001600160a01b038216600081815260208181526040808320805486019055518481527fddf252ad1be2c89b69c2b068fc378daa952ba7f163c4a11628f55a4df523b3ef910160405180910390a35050565b600060208083528351808285015260005b81811015610c5357858101830151858201604001528201610c37565b506000604082860101526040601f19601f8301168501019250505092915050565b80356001600160a01b038116811461076b57600080fd5b60008060408385031215610c9e57600080fd5b610ca783610c74565b946020939093013593505050565b600080600060608486031215610cca57600080fd5b610cd384610c74565b9250610ce160208501610c74565b9150604084013590509250925092565b600080600060608486031215610d0657600080fd5b505081359360208301359350604090920135919050565b600060208284031215610d2f57600080fd5b5035919050565b600060208284031215610d4857600080fd5b610d5182610c74565b9392505050565b60008060408385031215610d6b57600080fd5b610d7483610c74565b9150610d8260208401610c74565b90509250929050565b600181811c90821680610d9f57607f821691505b60208210810361075b57634e487b7160e01b600052602260045260246000fd5b634e487b7160e01b600052601160045260246000fd5b808201808211156103d7576103d7610dbf565b600082610e0557634e487b7160e01b600052601260045260246000fd5b500490565b600060208284031215610e1c57600080fd5b81518015158114610d5157600080fd5b80820281158282048414176103d7576103d7610dbf56fea26469706673582212206b0844ae5d5a628cb27a65b1fa1b36f032032f2b5438f4a22f9a8f1a5e67a9cd64736f6c63430008130033",
    "linkReferences": {}
  },
  "methodIdentifiers": {
    "addLiquidity(uint256,uint256,uint256)": "422f1043",
    "allowance(address,address)": "dd62ed3e",
    "approve(address,uint256)": "095ea7b3",
    "balanceOf(address)": "70a08231",
    "decimals()": "313ce567",
    "decreaseAllowance(address,uint256)": "a457c2d7",
    "increaseAllowance(address,uint256)": "39509351",
    "mint(address)": "6a627842",
    "name()": "06fdde03",
    "price_x()": "ea35bda9",
    "price_y()": "512d8972",
    "removeLiquidity(uint256,uint256,uint256)": "857620e1",
    "reserve_x()": "ca432722",
    "reserve_y()": "39af00ba",
    "sqrt(uint256)": "677342ce",
    "swap(uint256,uint256,uint256)": "9d9892cd",
    "symbol()": "95d89b41",
    "token_liquidity_L()": "e918c908",
    "token_x()": "96ad6a31",
    "token_y()": "143cae49",
    "totalSupply()": "18160ddd",
    "transfer(address,uint256)": "a9059cbb",
    "transferFrom(address,address,uint256)": "23b872dd"
  },
  "id": 21
}