{
  "abi": [
    {
      "inputs": [
        {
          "internalType": "address",
          "name": "tokenX",
          "type": "address"
        },
        {
          "internalType": "address",
          "name": "tokenY",
          "type": "address"
        }
      ],
      "stateMutability": "nonpayable",
      "type": "constructor"
    },
    {
      "anonymous": false,
      "inputs": [
        {
          "indexed": true,
          "internalType": "address",
          "name": "owner",
          "type": "address"
        },
        {
          "indexed": true,
          "internalType": "address",
          "name": "spender",
          "type": "address"
        },
        {
          "indexed": false,
          "internalType": "uint256",
          "name": "value",
          "type": "uint256"
        }
      ],
      "name": "Approval",
      "type": "event"
    },
    {
      "anonymous": false,
      "inputs": [
        {
          "indexed": true,
          "internalType": "address",
          "name": "from",
          "type": "address"
        },
        {
          "indexed": true,
          "internalType": "address",
          "name": "to",
          "type": "address"
        },
        {
          "indexed": false,
          "internalType": "uint256",
          "name": "value",
          "type": "uint256"
        }
      ],
      "name": "Transfer",
      "type": "event"
    },
    {
      "inputs": [
        {
          "internalType": "uint256",
          "name": "tokenXAmount",
          "type": "uint256"
        },
        {
          "internalType": "uint256",
          "name": "tokenYAmount",
          "type": "uint256"
        },
        {
          "internalType": "uint256",
          "name": "minimumLPTokenAmount",
          "type": "uint256"
        }
      ],
      "name": "addLiquidity",
      "outputs": [
        {
          "internalType": "uint256",
          "name": "LPTokenAmount",
          "type": "uint256"
        }
      ],
      "stateMutability": "nonpayable",
      "type": "function"
    },
    {
      "inputs": [
        {
          "internalType": "address",
          "name": "owner",
          "type": "address"
        },
        {
          "internalType": "address",
          "name": "spender",
          "type": "address"
        }
      ],
      "name": "allowance",
      "outputs": [
        {
          "internalType": "uint256",
          "name": "",
          "type": "uint256"
        }
      ],
      "stateMutability": "view",
      "type": "function"
    },
    {
      "inputs": [
        {
          "internalType": "address",
          "name": "spender",
          "type": "address"
        },
        {
          "internalType": "uint256",
          "name": "amount",
          "type": "uint256"
        }
      ],
      "name": "approve",
      "outputs": [
        {
          "internalType": "bool",
          "name": "",
          "type": "bool"
        }
      ],
      "stateMutability": "nonpayable",
      "type": "function"
    },
    {
      "inputs": [
        {
          "internalType": "address",
          "name": "account",
          "type": "address"
        }
      ],
      "name": "balanceOf",
      "outputs": [
        {
          "internalType": "uint256",
          "name": "",
          "type": "uint256"
        }
      ],
      "stateMutability": "view",
      "type": "function"
    },
    {
      "inputs": [],
      "name": "decimals",
      "outputs": [
        {
          "internalType": "uint8",
          "name": "",
          "type": "uint8"
        }
      ],
      "stateMutability": "view",
      "type": "function"
    },
    {
      "inputs": [
        {
          "internalType": "address",
          "name": "spender",
          "type": "address"
        },
        {
          "internalType": "uint256",
          "name": "subtractedValue",
          "type": "uint256"
        }
      ],
      "name": "decreaseAllowance",
      "outputs": [
        {
          "internalType": "bool",
          "name": "",
          "type": "bool"
        }
      ],
      "stateMutability": "nonpayable",
      "type": "function"
    },
    {
      "inputs": [
        {
          "internalType": "address",
          "name": "spender",
          "type": "address"
        },
        {
          "internalType": "uint256",
          "name": "addedValue",
          "type": "uint256"
        }
      ],
      "name": "increaseAllowance",
      "outputs": [
        {
          "internalType": "bool",
          "name": "",
          "type": "bool"
        }
      ],
      "stateMutability": "nonpayable",
      "type": "function"
    },
    {
      "inputs": [],
      "name": "name",
      "outputs": [
        {
          "internalType": "string",
          "name": "",
          "type": "string"
        }
      ],
      "stateMutability": "view",
      "type": "function"
    },
    {
      "inputs": [
        {
          "internalType": "uint256",
          "name": "LPTokenAmount",
          "type": "uint256"
        },
        {
          "internalType": "uint256",
          "name": "minimumTokenXAmount",
          "type": "uint256"
        },
        {
          "internalType": "uint256",
          "name": "minimumTokenYAmount",
          "type": "uint256"
        }
      ],
      "name": "removeLiquidity",
      "outputs": [
        {
          "internalType": "uint256",
          "name": "rx",
          "type": "uint256"
        },
        {
          "internalType": "uint256",
          "name": "ry",
          "type": "uint256"
        }
      ],
      "stateMutability": "nonpayable",
      "type": "function"
    },
    {
      "inputs": [],
      "name": "reserve_x",
      "outputs": [
        {
          "internalType": "uint256",
          "name": "",
          "type": "uint256"
        }
      ],
      "stateMutability": "view",
      "type": "function"
    },
    {
      "inputs": [],
      "name": "reserve_y",
      "outputs": [
        {
          "internalType": "uint256",
          "name": "",
          "type": "uint256"
        }
      ],
      "stateMutability": "view",
      "type": "function"
    },
    {
      "inputs": [
        {
          "internalType": "uint256",
          "name": "y",
          "type": "uint256"
        }
      ],
      "name": "sqrt",
      "outputs": [
        {
          "internalType": "uint256",
          "name": "z",
          "type": "uint256"
        }
      ],
      "stateMutability": "nonpayable",
      "type": "function"
    },
    {
      "inputs": [
        {
          "internalType": "uint256",
          "name": "tokenXAmount",
          "type": "uint256"
        },
        {
          "internalType": "uint256",
          "name": "tokenYAmount",
          "type": "uint256"
        },
        {
          "internalType": "uint256",
          "name": "tokenMinimumOutputAmount",
          "type": "uint256"
        }
      ],
      "name": "swap",
      "outputs": [
        {
          "internalType": "uint256",
          "name": "outputAmount",
          "type": "uint256"
        }
      ],
      "stateMutability": "nonpayable",
      "type": "function"
    },
    {
      "inputs": [],
      "name": "symbol",
      "outputs": [
        {
          "internalType": "string",
          "name": "",
          "type": "string"
        }
      ],
      "stateMutability": "view",
      "type": "function"
    },
    {
      "inputs": [],
      "name": "token_liquidity_L",
      "outputs": [
        {
          "internalType": "uint256",
          "name": "",
          "type": "uint256"
        }
      ],
      "stateMutability": "view",
      "type": "function"
    },
    {
      "inputs": [],
      "name": "token_x",
      "outputs": [
        {
          "internalType": "address",
          "name": "",
          "type": "address"
        }
      ],
      "stateMutability": "view",
      "type": "function"
    },
    {
      "inputs": [],
      "name": "token_y",
      "outputs": [
        {
          "internalType": "address",
          "name": "",
          "type": "address"
        }
      ],
      "stateMutability": "view",
      "type": "function"
    },
    {
      "inputs": [],
      "name": "totalSupply",
      "outputs": [
        {
          "internalType": "uint256",
          "name": "",
          "type": "uint256"
        }
      ],
      "stateMutability": "view",
      "type": "function"
    },
    {
      "inputs": [
        {
          "internalType": "address",
          "name": "to",
          "type": "address"
        },
        {
          "internalType": "uint256",
          "name": "amount",
          "type": "uint256"
        }
      ],
      "name": "transfer",
      "outputs": [
        {
          "internalType": "bool",
          "name": "",
          "type": "bool"
        }
      ],
      "stateMutability": "nonpayable",
      "type": "function"
    },
    {
      "inputs": [
        {
          "internalType": "address",
          "name": "from",
          "type": "address"
        },
        {
          "internalType": "address",
          "name": "to",
          "type": "address"
        },
        {
          "internalType": "uint256",
          "name": "amount",
          "type": "uint256"
        }
      ],
      "name": "transferFrom",
      "outputs": [
        {
          "internalType": "bool",
          "name": "",
          "type": "bool"
        }
      ],
      "stateMutability": "nonpayable",
      "type": "function"
    }
  ],
  "bytecode": {
    "object": "0x60806040523480156200001157600080fd5b5060405162001d0e38038062001d0e8339810160408190526200003491620001b9565b6040518060400160405280600381526020016244524d60e81b8152506040518060400160405280600b81526020016a222922a0a6afaa27a5a2a760a91b815250816003908162000085919062000296565b50600462000094828262000296565b505050806001600160a01b0316826001600160a01b031603620000f05760405162461bcd60e51b815260206004820152600f60248201526e73616d6520746f6b656e20782c207960881b60448201526064015b60405180910390fd5b6001600160a01b038216158015906200011157506001600160a01b03811615155b6200015f5760405162461bcd60e51b815260206004820152601960248201527f7a65726f206164647265737320746f6b656e2078206f722079000000000000006044820152606401620000e7565b600580546001600160a01b03199081163317909155600680546001600160a01b039485169083161790556007805492909316911617905562000362565b80516001600160a01b0381168114620001b457600080fd5b919050565b60008060408385031215620001cd57600080fd5b620001d8836200019c565b9150620001e8602084016200019c565b90509250929050565b634e487b7160e01b600052604160045260246000fd5b600181811c908216806200021c57607f821691505b6020821081036200023d57634e487b7160e01b600052602260045260246000fd5b50919050565b601f8211156200029157600081815260208120601f850160051c810160208610156200026c5750805b601f850160051c820191505b818110156200028d5782815560010162000278565b5050505b505050565b81516001600160401b03811115620002b257620002b2620001f1565b620002ca81620002c3845462000207565b8462000243565b602080601f831160018114620003025760008415620002e95750858301515b600019600386901b1c1916600185901b1785556200028d565b600085815260208120601f198616915b82811015620003335788860151825594840194600190910190840162000312565b5085821015620003525787850151600019600388901b60f8161c191681555b5050505050600190811b01905550565b61199c80620003726000396000f3fe608060405234801561001057600080fd5b506004361061012c5760003560e01c806370a08231116100ad578063a457c2d711610071578063a457c2d714610292578063a9059cbb146102a5578063ca432722146102b8578063dd62ed3e146102c1578063e918c908146102d457600080fd5b806370a0823114610213578063857620e11461023c57806395d89b411461026457806396ad6a311461026c5780639d9892cd1461027f57600080fd5b8063313ce567116100f4578063313ce567146101c257806339509351146101d157806339af00ba146101e4578063422f1043146101ed578063677342ce1461020057600080fd5b806306fdde0314610131578063095ea7b31461014f578063143cae491461017257806318160ddd1461019d57806323b872dd146101af575b600080fd5b6101396102dd565b60405161014691906116ed565b60405180910390f35b61016261015d36600461171e565b61036f565b6040519015158152602001610146565b600754610185906001600160a01b031681565b6040516001600160a01b039091168152602001610146565b6002545b604051908152602001610146565b6101626101bd366004611748565b610389565b60405160128152602001610146565b6101626101df36600461171e565b6103ad565b6101a160095481565b6101a16101fb366004611784565b6103cf565b6101a161020e3660046117b0565b61078a565b6101a16102213660046117c9565b6001600160a01b031660009081526020819052604090205490565b61024f61024a366004611784565b6107fa565b60408051928352602083019190915201610146565b610139610b57565b600654610185906001600160a01b031681565b6101a161028d366004611784565b610b66565b6101626102a036600461171e565b61100a565b6101626102b336600461171e565b611085565b6101a160085481565b6101a16102cf3660046117e4565b611093565b6101a1600a5481565b6060600380546102ec90611817565b80601f016020809104026020016040519081016040528092919081815260200182805461031890611817565b80156103655780601f1061033a57610100808354040283529160200191610365565b820191906000526020600020905b81548152906001019060200180831161034857829003601f168201915b5050505050905090565b60003361037d8185856110be565b60019150505b92915050565b6000336103978582856111e2565b6103a285858561125c565b506001949350505050565b60003361037d8185856103c08383611093565b6103ca9190611861565b6110be565b60006103f960405180604001604052806005815260200164095908095960da1b8152508585611400565b600084116104325760405162461bcd60e51b81526020600482015260016024820152606160f81b60448201526064015b60405180910390fd5b600083116104665760405162461bcd60e51b81526020600482015260016024820152603160f91b6044820152606401610429565b6040805180820182526002815261095960f21b60208201526006549151636eb1769f60e11b81523360048201523060248201526104f6926001600160a01b03169063dd62ed3e90604401602060405180830381865afa1580156104cd573d6000803e3d6000fd5b505050506040513d601f19601f820116820180604052508101906104f19190611874565b61144c565b6006546040516370a0823160e01b81523060048201526001600160a01b03909116906370a0823190602401602060405180830381865afa15801561053e573d6000803e3d6000fd5b505050506040513d601f19601f820116820180604052508101906105629190611874565b6008556007546040516370a0823160e01b81523060048201526001600160a01b03909116906370a0823190602401602060405180830381865afa1580156105ad573d6000803e3d6000fd5b505050506040513d601f19601f820116820180604052508101906105d19190611874565b60095560006105df60025490565b600003610610576105f960095460085461020e919061188d565b600a5561060961020e858761188d565b905061062d565b600854600254610620908761188d565b61062a91906118a4565b90505b6006546040516323b872dd60e01b81526001600160a01b03909116906323b872dd9061066190339030908a906004016118c6565b6020604051808303816000875af1158015610680573d6000803e3d6000fd5b505050506040513d601f19601f820116820180604052508101906106a491906118ea565b506007546040516323b872dd60e01b81526001600160a01b03909116906323b872dd906106d9903390309089906004016118c6565b6020604051808303816000875af11580156106f8573d6000803e3d6000fd5b505050506040513d601f19601f8201168201806040525081019061071c91906118ea565b508281116107785760405162461bcd60e51b815260206004820152602360248201527f746f6b656e5f616d6f756e74203e206d696e696d756d4c50546f6b656e416d6f6044820152621d5b9d60ea1b6064820152608401610429565b6107823382611495565b949350505050565b600060038211156107eb57508060006107a46002836118a4565b6107af906001611861565b90505b818110156107e5579050806002816107ca81866118a4565b6107d49190611861565b6107de91906118a4565b90506107b2565b50919050565b81156107f5575060015b919050565b33600090815260208190526040812054819085111561086a5760405162461bcd60e51b815260206004820152602660248201527f62616c616e63654f66286d73672e73656e64657229203e3d204c50546f6b656e604482015265105b5bdd5b9d60d21b6064820152608401610429565b6006546040516370a0823160e01b81523060048201526001600160a01b03909116906370a0823190602401602060405180830381865afa1580156108b2573d6000803e3d6000fd5b505050506040513d601f19601f820116820180604052508101906108d69190611874565b6008556007546040516370a0823160e01b81523060048201526001600160a01b03909116906370a0823190602401602060405180830381865afa158015610921573d6000803e3d6000fd5b505050506040513d601f19601f820116820180604052508101906109459190611874565b60095560025485600854610959919061188d565b61096391906118a4565b915061096e60025490565b8560095461097c919061188d565b61098691906118a4565b9050838210156109d85760405162461bcd60e51b815260206004820152601960248201527f7278203e3d206d696e696d756d546f6b656e58416d6f756e74000000000000006044820152606401610429565b82811015610a285760405162461bcd60e51b815260206004820152601960248201527f7279203e3d206d696e696d756d546f6b656e59416d6f756e74000000000000006044820152606401610429565b8160086000828254610a3a919061190c565b925050819055508060096000828254610a53919061190c565b90915550610a6390503386611554565b60065460405163a9059cbb60e01b8152336004820152602481018490526001600160a01b039091169063a9059cbb906044016020604051808303816000875af1158015610ab4573d6000803e3d6000fd5b505050506040513d601f19601f82011682018060405250810190610ad891906118ea565b5060075460405163a9059cbb60e01b8152336004820152602481018390526001600160a01b039091169063a9059cbb906044016020604051808303816000875af1158015610b2a573d6000803e3d6000fd5b505050506040513d601f19601f82011682018060405250810190610b4e91906118ea565b50935093915050565b6060600480546102ec90611817565b60008084118015610b75575082155b80610b895750600083118015610b89575083155b610b9257600080fd5b6006546040516370a0823160e01b81523060048201526001600160a01b03909116906370a0823190602401602060405180830381865afa158015610bda573d6000803e3d6000fd5b505050506040513d601f19601f82011682018060405250810190610bfe9190611874565b6008556007546040516370a0823160e01b81523060048201526001600160a01b03909116906370a0823190602401602060405180830381865afa158015610c49573d6000803e3d6000fd5b505050506040513d601f19601f82011682018060405250810190610c6d9190611874565b600955600080858103610e3f576007546040516323b872dd60e01b81526001600160a01b03909116906323b872dd90610cae90339030908a906004016118c6565b6020604051808303816000875af1158015610ccd573d6000803e3d6000fd5b505050506040513d601f19601f82011682018060405250810190610cf191906118ea565b5084600954610d009190611861565b915081600954600854610d13919061188d565b610d1d91906118a4565b90506103e881600854610d30919061190c565b610d3c906103e761188d565b610d4691906118a4565b925083831015610d935760405162461bcd60e51b81526020600482015260186024820152771d1bdad95b935a5b9a5b5d5b53dd5d1c1d5d105b5bdd5b9d60421b6044820152606401610429565b60065460405163a9059cbb60e01b8152336004820152602481018590526001600160a01b039091169063a9059cbb906044016020604051808303816000875af1158015610de4573d6000803e3d6000fd5b505050506040513d601f19601f82011682018060405250810190610e0891906118ea565b508460096000828254610e1b9190611861565b925050819055508260086000828254610e34919061190c565b909155506110019050565b8460000361012c576006546040516323b872dd60e01b81526001600160a01b03909116906323b872dd90610e7b90339030908b906004016118c6565b6020604051808303816000875af1158015610e9a573d6000803e3d6000fd5b505050506040513d601f19601f82011682018060405250810190610ebe91906118ea565b5085600854610ecd9190611861565b905080600954600854610ee0919061188d565b610eea91906118a4565b91506103e882600954610efd919061190c565b610f09906103e761188d565b610f1391906118a4565b925083831015610f605760405162461bcd60e51b81526020600482015260186024820152771d1bdad95b935a5b9a5b5d5b53dd5d1c1d5d105b5bdd5b9d60421b6044820152606401610429565b60075460405163a9059cbb60e01b8152336004820152602481018590526001600160a01b039091169063a9059cbb906044016020604051808303816000875af1158015610fb1573d6000803e3d6000fd5b505050506040513d601f19601f82011682018060405250810190610fd591906118ea565b508560086000828254610fe89190611861565b925050819055508260096000828254610e34919061190c565b50509392505050565b600033816110188286611093565b9050838110156110785760405162461bcd60e51b815260206004820152602560248201527f45524332303a2064656372656173656420616c6c6f77616e63652062656c6f77604482015264207a65726f60d81b6064820152608401610429565b6103a282868684036110be565b60003361037d81858561125c565b6001600160a01b03918216600090815260016020908152604080832093909416825291909152205490565b6001600160a01b0383166111205760405162461bcd60e51b8152602060048201526024808201527f45524332303a20617070726f76652066726f6d20746865207a65726f206164646044820152637265737360e01b6064820152608401610429565b6001600160a01b0382166111815760405162461bcd60e51b815260206004820152602260248201527f45524332303a20617070726f766520746f20746865207a65726f206164647265604482015261737360f01b6064820152608401610429565b6001600160a01b0383811660008181526001602090815260408083209487168084529482529182902085905590518481527f8c5be1e5ebec7d5bd14f71427d1e84f3dd0314c0f7b2291e5b200ac8c7c3b925910160405180910390a3505050565b60006111ee8484611093565b9050600019811461125657818110156112495760405162461bcd60e51b815260206004820152601d60248201527f45524332303a20696e73756666696369656e7420616c6c6f77616e63650000006044820152606401610429565b61125684848484036110be565b50505050565b6001600160a01b0383166112c05760405162461bcd60e51b815260206004820152602560248201527f45524332303a207472616e736665722066726f6d20746865207a65726f206164604482015264647265737360d81b6064820152608401610429565b6001600160a01b0382166113225760405162461bcd60e51b815260206004820152602360248201527f45524332303a207472616e7366657220746f20746865207a65726f206164647260448201526265737360e81b6064820152608401610429565b6001600160a01b0383166000908152602081905260409020548181101561139a5760405162461bcd60e51b815260206004820152602660248201527f45524332303a207472616e7366657220616d6f756e7420657863656564732062604482015265616c616e636560d01b6064820152608401610429565b6001600160a01b03848116600081815260208181526040808320878703905593871680835291849020805487019055925185815290927fddf252ad1be2c89b69c2b068fc378daa952ba7f163c4a11628f55a4df523b3ef910160405180910390a3611256565b6114478383836040516024016114189392919061191f565b60408051601f198184030181529190526020810180516001600160e01b031663969cdd0360e01b179052611686565b505050565b6114918282604051602401611462929190611944565b60408051601f198184030181529190526020810180516001600160e01b03166309710a9d60e41b179052611686565b5050565b6001600160a01b0382166114eb5760405162461bcd60e51b815260206004820152601f60248201527f45524332303a206d696e7420746f20746865207a65726f2061646472657373006044820152606401610429565b80600260008282546114fd9190611861565b90915550506001600160a01b038216600081815260208181526040808320805486019055518481527fddf252ad1be2c89b69c2b068fc378daa952ba7f163c4a11628f55a4df523b3ef910160405180910390a35050565b6001600160a01b0382166115b45760405162461bcd60e51b815260206004820152602160248201527f45524332303a206275726e2066726f6d20746865207a65726f206164647265736044820152607360f81b6064820152608401610429565b6001600160a01b038216600090815260208190526040902054818110156116285760405162461bcd60e51b815260206004820152602260248201527f45524332303a206275726e20616d6f756e7420657863656564732062616c616e604482015261636560f01b6064820152608401610429565b6001600160a01b0383166000818152602081815260408083208686039055600280548790039055518581529192917fddf252ad1be2c89b69c2b068fc378daa952ba7f163c4a11628f55a4df523b3ef910160405180910390a3505050565b80516a636f6e736f6c652e6c6f67602083016000808483855afa5050505050565b6000815180845260005b818110156116cd576020818501810151868301820152016116b1565b506000602082860101526020601f19601f83011685010191505092915050565b60208152600061170060208301846116a7565b9392505050565b80356001600160a01b03811681146107f557600080fd5b6000806040838503121561173157600080fd5b61173a83611707565b946020939093013593505050565b60008060006060848603121561175d57600080fd5b61176684611707565b925061177460208501611707565b9150604084013590509250925092565b60008060006060848603121561179957600080fd5b505081359360208301359350604090920135919050565b6000602082840312156117c257600080fd5b5035919050565b6000602082840312156117db57600080fd5b61170082611707565b600080604083850312156117f757600080fd5b61180083611707565b915061180e60208401611707565b90509250929050565b600181811c9082168061182b57607f821691505b6020821081036107e557634e487b7160e01b600052602260045260246000fd5b634e487b7160e01b600052601160045260246000fd5b808201808211156103835761038361184b565b60006020828403121561188657600080fd5b5051919050565b80820281158282048414176103835761038361184b565b6000826118c157634e487b7160e01b600052601260045260246000fd5b500490565b6001600160a01b039384168152919092166020820152604081019190915260600190565b6000602082840312156118fc57600080fd5b8151801515811461170057600080fd5b818103818111156103835761038361184b565b60608152600061193260608301866116a7565b60208301949094525060400152919050565b60408152600061195760408301856116a7565b9050826020830152939250505056fea26469706673582212207559e586093772e0213235ec185b17929f29d255b68477dab1a769b878880fa864736f6c63430008130033",
    "linkReferences": {}
  },
  "methodIdentifiers": {
    "addLiquidity(uint256,uint256,uint256)": "422f1043",
    "allowance(address,address)": "dd62ed3e",
    "approve(address,uint256)": "095ea7b3",
    "balanceOf(address)": "70a08231",
    "decimals()": "313ce567",
    "decreaseAllowance(address,uint256)": "a457c2d7",
    "increaseAllowance(address,uint256)": "39509351",
    "name()": "06fdde03",
    "removeLiquidity(uint256,uint256,uint256)": "857620e1",
    "reserve_x()": "ca432722",
    "reserve_y()": "39af00ba",
    "sqrt(uint256)": "677342ce",
    "swap(uint256,uint256,uint256)": "9d9892cd",
    "symbol()": "95d89b41",
    "token_liquidity_L()": "e918c908",
    "token_x()": "96ad6a31",
    "token_y()": "143cae49",
    "totalSupply()": "18160ddd",
    "transfer(address,uint256)": "a9059cbb",
    "transferFrom(address,address,uint256)": "23b872dd"
  },
  "id": 21
}