{
  "abi": [
    {
      "inputs": [
        {
          "internalType": "address",
          "name": "tokenX",
          "type": "address"
        },
        {
          "internalType": "address",
          "name": "tokenY",
          "type": "address"
        }
      ],
      "stateMutability": "nonpayable",
      "type": "constructor"
    },
    {
      "anonymous": false,
      "inputs": [
        {
          "indexed": true,
          "internalType": "address",
          "name": "owner",
          "type": "address"
        },
        {
          "indexed": true,
          "internalType": "address",
          "name": "spender",
          "type": "address"
        },
        {
          "indexed": false,
          "internalType": "uint256",
          "name": "value",
          "type": "uint256"
        }
      ],
      "name": "Approval",
      "type": "event"
    },
    {
      "anonymous": false,
      "inputs": [
        {
          "indexed": true,
          "internalType": "address",
          "name": "from",
          "type": "address"
        },
        {
          "indexed": true,
          "internalType": "address",
          "name": "to",
          "type": "address"
        },
        {
          "indexed": false,
          "internalType": "uint256",
          "name": "value",
          "type": "uint256"
        }
      ],
      "name": "Transfer",
      "type": "event"
    },
    {
      "inputs": [
        {
          "internalType": "uint256",
          "name": "tokenXAmount",
          "type": "uint256"
        },
        {
          "internalType": "uint256",
          "name": "tokenYAmount",
          "type": "uint256"
        },
        {
          "internalType": "uint256",
          "name": "minimumLPTokenAmount",
          "type": "uint256"
        }
      ],
      "name": "addLiquidity",
      "outputs": [
        {
          "internalType": "uint256",
          "name": "LPTokenAmount",
          "type": "uint256"
        }
      ],
      "stateMutability": "nonpayable",
      "type": "function"
    },
    {
      "inputs": [
        {
          "internalType": "address",
          "name": "owner",
          "type": "address"
        },
        {
          "internalType": "address",
          "name": "spender",
          "type": "address"
        }
      ],
      "name": "allowance",
      "outputs": [
        {
          "internalType": "uint256",
          "name": "",
          "type": "uint256"
        }
      ],
      "stateMutability": "view",
      "type": "function"
    },
    {
      "inputs": [
        {
          "internalType": "address",
          "name": "spender",
          "type": "address"
        },
        {
          "internalType": "uint256",
          "name": "amount",
          "type": "uint256"
        }
      ],
      "name": "approve",
      "outputs": [
        {
          "internalType": "bool",
          "name": "",
          "type": "bool"
        }
      ],
      "stateMutability": "nonpayable",
      "type": "function"
    },
    {
      "inputs": [
        {
          "internalType": "address",
          "name": "account",
          "type": "address"
        }
      ],
      "name": "balanceOf",
      "outputs": [
        {
          "internalType": "uint256",
          "name": "",
          "type": "uint256"
        }
      ],
      "stateMutability": "view",
      "type": "function"
    },
    {
      "inputs": [],
      "name": "decimals",
      "outputs": [
        {
          "internalType": "uint8",
          "name": "",
          "type": "uint8"
        }
      ],
      "stateMutability": "view",
      "type": "function"
    },
    {
      "inputs": [
        {
          "internalType": "address",
          "name": "spender",
          "type": "address"
        },
        {
          "internalType": "uint256",
          "name": "subtractedValue",
          "type": "uint256"
        }
      ],
      "name": "decreaseAllowance",
      "outputs": [
        {
          "internalType": "bool",
          "name": "",
          "type": "bool"
        }
      ],
      "stateMutability": "nonpayable",
      "type": "function"
    },
    {
      "inputs": [
        {
          "internalType": "address",
          "name": "spender",
          "type": "address"
        },
        {
          "internalType": "uint256",
          "name": "addedValue",
          "type": "uint256"
        }
      ],
      "name": "increaseAllowance",
      "outputs": [
        {
          "internalType": "bool",
          "name": "",
          "type": "bool"
        }
      ],
      "stateMutability": "nonpayable",
      "type": "function"
    },
    {
      "inputs": [
        {
          "internalType": "address",
          "name": "to",
          "type": "address"
        }
      ],
      "name": "mint",
      "outputs": [
        {
          "internalType": "uint256",
          "name": "liquidity",
          "type": "uint256"
        }
      ],
      "stateMutability": "nonpayable",
      "type": "function"
    },
    {
      "inputs": [],
      "name": "name",
      "outputs": [
        {
          "internalType": "string",
          "name": "",
          "type": "string"
        }
      ],
      "stateMutability": "view",
      "type": "function"
    },
    {
      "inputs": [
        {
          "internalType": "uint256",
          "name": "LPTokenAmount",
          "type": "uint256"
        },
        {
          "internalType": "uint256",
          "name": "minimumTokenXAmount",
          "type": "uint256"
        },
        {
          "internalType": "uint256",
          "name": "minimumTokenYAmount",
          "type": "uint256"
        }
      ],
      "name": "removeLiquidity",
      "outputs": [
        {
          "internalType": "uint256",
          "name": "rx",
          "type": "uint256"
        },
        {
          "internalType": "uint256",
          "name": "ry",
          "type": "uint256"
        }
      ],
      "stateMutability": "nonpayable",
      "type": "function"
    },
    {
      "inputs": [],
      "name": "reserve_x",
      "outputs": [
        {
          "internalType": "uint256",
          "name": "",
          "type": "uint256"
        }
      ],
      "stateMutability": "view",
      "type": "function"
    },
    {
      "inputs": [],
      "name": "reserve_y",
      "outputs": [
        {
          "internalType": "uint256",
          "name": "",
          "type": "uint256"
        }
      ],
      "stateMutability": "view",
      "type": "function"
    },
    {
      "inputs": [
        {
          "internalType": "uint256",
          "name": "y",
          "type": "uint256"
        }
      ],
      "name": "sqrt",
      "outputs": [
        {
          "internalType": "uint256",
          "name": "z",
          "type": "uint256"
        }
      ],
      "stateMutability": "nonpayable",
      "type": "function"
    },
    {
      "inputs": [
        {
          "internalType": "uint256",
          "name": "tokenXAmount",
          "type": "uint256"
        },
        {
          "internalType": "uint256",
          "name": "tokenYAmount",
          "type": "uint256"
        },
        {
          "internalType": "uint256",
          "name": "tokenMinimumOutputAmount",
          "type": "uint256"
        }
      ],
      "name": "swap",
      "outputs": [
        {
          "internalType": "uint256",
          "name": "outputAmount",
          "type": "uint256"
        }
      ],
      "stateMutability": "nonpayable",
      "type": "function"
    },
    {
      "inputs": [],
      "name": "symbol",
      "outputs": [
        {
          "internalType": "string",
          "name": "",
          "type": "string"
        }
      ],
      "stateMutability": "view",
      "type": "function"
    },
    {
      "inputs": [],
      "name": "token_liquidity_L",
      "outputs": [
        {
          "internalType": "uint256",
          "name": "",
          "type": "uint256"
        }
      ],
      "stateMutability": "view",
      "type": "function"
    },
    {
      "inputs": [],
      "name": "token_x",
      "outputs": [
        {
          "internalType": "address",
          "name": "",
          "type": "address"
        }
      ],
      "stateMutability": "view",
      "type": "function"
    },
    {
      "inputs": [],
      "name": "token_y",
      "outputs": [
        {
          "internalType": "address",
          "name": "",
          "type": "address"
        }
      ],
      "stateMutability": "view",
      "type": "function"
    },
    {
      "inputs": [],
      "name": "totalSupply",
      "outputs": [
        {
          "internalType": "uint256",
          "name": "",
          "type": "uint256"
        }
      ],
      "stateMutability": "view",
      "type": "function"
    },
    {
      "inputs": [
        {
          "internalType": "address",
          "name": "to",
          "type": "address"
        },
        {
          "internalType": "uint256",
          "name": "lpAmount",
          "type": "uint256"
        }
      ],
      "name": "transfer",
      "outputs": [
        {
          "internalType": "bool",
          "name": "",
          "type": "bool"
        }
      ],
      "stateMutability": "nonpayable",
      "type": "function"
    },
    {
      "inputs": [
        {
          "internalType": "address",
          "name": "from",
          "type": "address"
        },
        {
          "internalType": "address",
          "name": "to",
          "type": "address"
        },
        {
          "internalType": "uint256",
          "name": "amount",
          "type": "uint256"
        }
      ],
      "name": "transferFrom",
      "outputs": [
        {
          "internalType": "bool",
          "name": "",
          "type": "bool"
        }
      ],
      "stateMutability": "nonpayable",
      "type": "function"
    }
  ],
  "bytecode": {
    "object": "0x60806040523480156200001157600080fd5b5060405162001939380380620019398339810160408190526200003491620001b9565b6040518060400160405280600381526020016244524d60e81b8152506040518060400160405280600b81526020016a222922a0a6afaa27a5a2a760a91b815250816003908162000085919062000296565b50600462000094828262000296565b505050806001600160a01b0316826001600160a01b031603620000f05760405162461bcd60e51b815260206004820152600f60248201526e73616d6520746f6b656e20782c207960881b60448201526064015b60405180910390fd5b6001600160a01b038216158015906200011157506001600160a01b03811615155b6200015f5760405162461bcd60e51b815260206004820152601960248201527f7a65726f206164647265737320746f6b656e2078206f722079000000000000006044820152606401620000e7565b600580546001600160a01b03199081163317909155600680546001600160a01b039485169083161790556007805492909316911617905562000362565b80516001600160a01b0381168114620001b457600080fd5b919050565b60008060408385031215620001cd57600080fd5b620001d8836200019c565b9150620001e8602084016200019c565b90509250929050565b634e487b7160e01b600052604160045260246000fd5b600181811c908216806200021c57607f821691505b6020821081036200023d57634e487b7160e01b600052602260045260246000fd5b50919050565b601f8211156200029157600081815260208120601f850160051c810160208610156200026c5750805b601f850160051c820191505b818110156200028d5782815560010162000278565b5050505b505050565b81516001600160401b03811115620002b257620002b2620001f1565b620002ca81620002c3845462000207565b8462000243565b602080601f831160018114620003025760008415620002e95750858301515b600019600386901b1c1916600185901b1785556200028d565b600085815260208120601f198616915b82811015620003335788860151825594840194600190910190840162000312565b5085821015620003525787850151600019600388901b60f8161c191681555b5050505050600190811b01905550565b6115c780620003726000396000f3fe608060405234801561001057600080fd5b50600436106101375760003560e01c80636a627842116100b85780639d9892cd1161007c5780639d9892cd1461029e578063a457c2d7146102b1578063a9059cbb146102c4578063ca432722146102da578063dd62ed3e146102e3578063e918c908146102f657600080fd5b80636a6278421461021e57806370a0823114610232578063857620e11461025b57806395d89b411461028357806396ad6a311461028b57600080fd5b8063313ce567116100ff578063313ce567146101cd57806339509351146101dc57806339af00ba146101ef578063422f1043146101f8578063677342ce1461020b57600080fd5b806306fdde031461013c578063095ea7b31461015a578063143cae491461017d57806318160ddd146101a857806323b872dd146101ba575b600080fd5b6101446102ff565b604051610151919061133d565b60405180910390f35b61016d6101683660046113a2565b610391565b6040519015158152602001610151565b600754610190906001600160a01b031681565b6040516001600160a01b039091168152602001610151565b6002545b604051908152602001610151565b61016d6101c83660046113cc565b6103ab565b60405160128152602001610151565b61016d6101ea3660046113a2565b6103cf565b6101ac60095481565b6101ac610206366004611408565b6103f1565b6101ac610219366004611434565b6106a7565b6101ac61022c36600461144d565b50600090565b6101ac61024036600461144d565b6001600160a01b031660009081526020819052604090205490565b61026e610269366004611408565b610717565b60408051928352602083019190915201610151565b610144610996565b600654610190906001600160a01b031681565b6101ac6102ac366004611408565b6109a5565b61016d6102bf3660046113a2565b610d6b565b61016d6102d23660046113a2565b600092915050565b6101ac60085481565b6101ac6102f136600461146f565b610de6565b6101ac600a5481565b60606003805461030e906114a2565b80601f016020809104026020016040519081016040528092919081815260200182805461033a906114a2565b80156103875780601f1061035c57610100808354040283529160200191610387565b820191906000526020600020905b81548152906001019060200180831161036a57829003601f168201915b5050505050905090565b60003361039f818585610e11565b60019150505b92915050565b6000336103b9858285610f36565b6103c4858585610fb0565b506001949350505050565b60003361039f8185856103e28383610de6565b6103ec91906114ec565b610e11565b60006103fc60025490565b158061041f575060095460085461041391906114ff565b61041d84866114ff565b145b61044a5760405162461bcd60e51b815260206004820152600060248201526044015b60405180910390fd5b6006546040516323b872dd60e01b81526000916001600160a01b0316906323b872dd9061047f90339030908a90600401611521565b6020604051808303816000875af115801561049e573d6000803e3d6000fd5b505050506040513d601f19601f820116820180604052508101906104c29190611545565b9050806105115760405162461bcd60e51b815260206004820152601b60248201527f746f6b656e2078207472616e7366657246726f6d206661696c656400000000006044820152606401610441565b6007546040516323b872dd60e01b81526001600160a01b03909116906323b872dd9061054590339030908990600401611521565b6020604051808303816000875af1158015610564573d6000803e3d6000fd5b505050506040513d601f19601f820116820180604052508101906105889190611545565b9050806105d75760405162461bcd60e51b815260206004820152601b60248201527f746f6b656e2079207472616e7366657246726f6d206661696c656400000000006044820152606401610441565b84600860008282546105e991906114ec565b92505081905550836009600082825461060291906114ec565b9091555050600254600003610628576106246009546008546102199190611567565b600a555b60006106376102198688611567565b90508381116106945760405162461bcd60e51b815260206004820152602360248201527f746f6b656e5f616d6f756e74203e206d696e696d756d4c50546f6b656e416d6f6044820152621d5b9d60ea1b6064820152608401610441565b61069e3382611154565b95945050505050565b6000600382111561070857508060006106c16002836114ff565b6106cc9060016114ec565b90505b81811015610702579050806002816106e781866114ff565b6106f191906114ec565b6106fb91906114ff565b90506106cf565b50919050565b8115610712575060015b919050565b3360009081526020819052604081205481908511156107875760405162461bcd60e51b815260206004820152602660248201527f62616c616e63654f66286d73672e73656e64657229203e3d204c50546f6b656e604482015265105b5bdd5b9d60d21b6064820152608401610441565b600254856008546107989190611567565b6107a291906114ff565b91506107ad60025490565b856009546107bb9190611567565b6107c591906114ff565b9050838210156108175760405162461bcd60e51b815260206004820152601960248201527f7278203e3d206d696e696d756d546f6b656e58416d6f756e74000000000000006044820152606401610441565b828110156108675760405162461bcd60e51b815260206004820152601960248201527f7279203e3d206d696e696d756d546f6b656e59416d6f756e74000000000000006044820152606401610441565b8160086000828254610879919061157e565b925050819055508060096000828254610892919061157e565b909155506108a290503386611213565b60065460405163a9059cbb60e01b8152336004820152602481018490526001600160a01b039091169063a9059cbb906044016020604051808303816000875af11580156108f3573d6000803e3d6000fd5b505050506040513d601f19601f820116820180604052508101906109179190611545565b5060075460405163a9059cbb60e01b8152336004820152602481018390526001600160a01b039091169063a9059cbb906044016020604051808303816000875af1158015610969573d6000803e3d6000fd5b505050506040513d601f19601f8201168201806040525081019061098d9190611545565b50935093915050565b60606004805461030e906114a2565b600083158015906109b4575082155b806109c7575082158015906109c7575083155b6109d057600080fd5b60008085600003610ba0576007546040516323b872dd60e01b81526001600160a01b03909116906323b872dd90610a0f90339030908a90600401611521565b6020604051808303816000875af1158015610a2e573d6000803e3d6000fd5b505050506040513d601f19601f82011682018060405250810190610a529190611545565b5084600954610a6191906114ec565b915081600954600854610a749190611567565b610a7e91906114ff565b90506103e881600854610a91919061157e565b610a9d906103e7611567565b610aa791906114ff565b925083831015610af45760405162461bcd60e51b81526020600482015260186024820152771d1bdad95b935a5b9a5b5d5b53dd5d1c1d5d105b5bdd5b9d60421b6044820152606401610441565b60065460405163a9059cbb60e01b8152336004820152602481018590526001600160a01b039091169063a9059cbb906044016020604051808303816000875af1158015610b45573d6000803e3d6000fd5b505050506040513d601f19601f82011682018060405250810190610b699190611545565b508460096000828254610b7c91906114ec565b925050819055508260086000828254610b95919061157e565b90915550610d629050565b84600003610137576006546040516323b872dd60e01b81526001600160a01b03909116906323b872dd90610bdc90339030908b90600401611521565b6020604051808303816000875af1158015610bfb573d6000803e3d6000fd5b505050506040513d601f19601f82011682018060405250810190610c1f9190611545565b5085600854610c2e91906114ec565b905080600954600854610c419190611567565b610c4b91906114ff565b91506103e882600954610c5e919061157e565b610c6a906103e7611567565b610c7491906114ff565b925083831015610cc15760405162461bcd60e51b81526020600482015260186024820152771d1bdad95b935a5b9a5b5d5b53dd5d1c1d5d105b5bdd5b9d60421b6044820152606401610441565b60075460405163a9059cbb60e01b8152336004820152602481018590526001600160a01b039091169063a9059cbb906044016020604051808303816000875af1158015610d12573d6000803e3d6000fd5b505050506040513d601f19601f82011682018060405250810190610d369190611545565b508560086000828254610d4991906114ec565b925050819055508260096000828254610b95919061157e565b50509392505050565b60003381610d798286610de6565b905083811015610dd95760405162461bcd60e51b815260206004820152602560248201527f45524332303a2064656372656173656420616c6c6f77616e63652062656c6f77604482015264207a65726f60d81b6064820152608401610441565b6103c48286868403610e11565b6001600160a01b03918216600090815260016020908152604080832093909416825291909152205490565b6001600160a01b038316610e735760405162461bcd60e51b8152602060048201526024808201527f45524332303a20617070726f76652066726f6d20746865207a65726f206164646044820152637265737360e01b6064820152608401610441565b6001600160a01b038216610ed45760405162461bcd60e51b815260206004820152602260248201527f45524332303a20617070726f766520746f20746865207a65726f206164647265604482015261737360f01b6064820152608401610441565b6001600160a01b0383811660008181526001602090815260408083209487168084529482529182902085905590518481527f8c5be1e5ebec7d5bd14f71427d1e84f3dd0314c0f7b2291e5b200ac8c7c3b92591015b60405180910390a3505050565b6000610f428484610de6565b90506000198114610faa5781811015610f9d5760405162461bcd60e51b815260206004820152601d60248201527f45524332303a20696e73756666696369656e7420616c6c6f77616e63650000006044820152606401610441565b610faa8484848403610e11565b50505050565b6001600160a01b0383166110145760405162461bcd60e51b815260206004820152602560248201527f45524332303a207472616e736665722066726f6d20746865207a65726f206164604482015264647265737360d81b6064820152608401610441565b6001600160a01b0382166110765760405162461bcd60e51b815260206004820152602360248201527f45524332303a207472616e7366657220746f20746865207a65726f206164647260448201526265737360e81b6064820152608401610441565b6001600160a01b038316600090815260208190526040902054818110156110ee5760405162461bcd60e51b815260206004820152602660248201527f45524332303a207472616e7366657220616d6f756e7420657863656564732062604482015265616c616e636560d01b6064820152608401610441565b6001600160a01b03848116600081815260208181526040808320878703905593871680835291849020805487019055925185815290927fddf252ad1be2c89b69c2b068fc378daa952ba7f163c4a11628f55a4df523b3ef910160405180910390a3610faa565b6001600160a01b0382166111aa5760405162461bcd60e51b815260206004820152601f60248201527f45524332303a206d696e7420746f20746865207a65726f2061646472657373006044820152606401610441565b80600260008282546111bc91906114ec565b90915550506001600160a01b038216600081815260208181526040808320805486019055518481527fddf252ad1be2c89b69c2b068fc378daa952ba7f163c4a11628f55a4df523b3ef910160405180910390a35050565b6001600160a01b0382166112735760405162461bcd60e51b815260206004820152602160248201527f45524332303a206275726e2066726f6d20746865207a65726f206164647265736044820152607360f81b6064820152608401610441565b6001600160a01b038216600090815260208190526040902054818110156112e75760405162461bcd60e51b815260206004820152602260248201527f45524332303a206275726e20616d6f756e7420657863656564732062616c616e604482015261636560f01b6064820152608401610441565b6001600160a01b0383166000818152602081815260408083208686039055600280548790039055518581529192917fddf252ad1be2c89b69c2b068fc378daa952ba7f163c4a11628f55a4df523b3ef9101610f29565b600060208083528351808285015260005b8181101561136a5785810183015185820160400152820161134e565b506000604082860101526040601f19601f8301168501019250505092915050565b80356001600160a01b038116811461071257600080fd5b600080604083850312156113b557600080fd5b6113be8361138b565b946020939093013593505050565b6000806000606084860312156113e157600080fd5b6113ea8461138b565b92506113f86020850161138b565b9150604084013590509250925092565b60008060006060848603121561141d57600080fd5b505081359360208301359350604090920135919050565b60006020828403121561144657600080fd5b5035919050565b60006020828403121561145f57600080fd5b6114688261138b565b9392505050565b6000806040838503121561148257600080fd5b61148b8361138b565b91506114996020840161138b565b90509250929050565b600181811c908216806114b657607f821691505b60208210810361070257634e487b7160e01b600052602260045260246000fd5b634e487b7160e01b600052601160045260246000fd5b808201808211156103a5576103a56114d6565b60008261151c57634e487b7160e01b600052601260045260246000fd5b500490565b6001600160a01b039384168152919092166020820152604081019190915260600190565b60006020828403121561155757600080fd5b8151801515811461146857600080fd5b80820281158282048414176103a5576103a56114d6565b818103818111156103a5576103a56114d656fea26469706673582212203c62a57820ecb104703ef2c0fbd26ab52c1da90236e6727fd3c67484ecfbe88364736f6c63430008130033",
    "linkReferences": {}
  },
  "methodIdentifiers": {
    "addLiquidity(uint256,uint256,uint256)": "422f1043",
    "allowance(address,address)": "dd62ed3e",
    "approve(address,uint256)": "095ea7b3",
    "balanceOf(address)": "70a08231",
    "decimals()": "313ce567",
    "decreaseAllowance(address,uint256)": "a457c2d7",
    "increaseAllowance(address,uint256)": "39509351",
    "mint(address)": "6a627842",
    "name()": "06fdde03",
    "removeLiquidity(uint256,uint256,uint256)": "857620e1",
    "reserve_x()": "ca432722",
    "reserve_y()": "39af00ba",
    "sqrt(uint256)": "677342ce",
    "swap(uint256,uint256,uint256)": "9d9892cd",
    "symbol()": "95d89b41",
    "token_liquidity_L()": "e918c908",
    "token_x()": "96ad6a31",
    "token_y()": "143cae49",
    "totalSupply()": "18160ddd",
    "transfer(address,uint256)": "a9059cbb",
    "transferFrom(address,address,uint256)": "23b872dd"
  },
  "id": 21
}