{
  "abi": [
    {
      "inputs": [
        {
          "internalType": "address",
          "name": "tokenX",
          "type": "address"
        },
        {
          "internalType": "address",
          "name": "tokenY",
          "type": "address"
        }
      ],
      "stateMutability": "nonpayable",
      "type": "constructor"
    },
    {
      "anonymous": false,
      "inputs": [
        {
          "indexed": true,
          "internalType": "address",
          "name": "owner",
          "type": "address"
        },
        {
          "indexed": true,
          "internalType": "address",
          "name": "spender",
          "type": "address"
        },
        {
          "indexed": false,
          "internalType": "uint256",
          "name": "value",
          "type": "uint256"
        }
      ],
      "name": "Approval",
      "type": "event"
    },
    {
      "anonymous": false,
      "inputs": [
        {
          "indexed": true,
          "internalType": "address",
          "name": "from",
          "type": "address"
        },
        {
          "indexed": true,
          "internalType": "address",
          "name": "to",
          "type": "address"
        },
        {
          "indexed": false,
          "internalType": "uint256",
          "name": "value",
          "type": "uint256"
        }
      ],
      "name": "Transfer",
      "type": "event"
    },
    {
      "inputs": [
        {
          "internalType": "uint256",
          "name": "tokenXAmount",
          "type": "uint256"
        },
        {
          "internalType": "uint256",
          "name": "tokenYAmount",
          "type": "uint256"
        },
        {
          "internalType": "uint256",
          "name": "minimumLPTokenAmount",
          "type": "uint256"
        }
      ],
      "name": "addLiquidity",
      "outputs": [
        {
          "internalType": "uint256",
          "name": "LPTokenAmount",
          "type": "uint256"
        }
      ],
      "stateMutability": "nonpayable",
      "type": "function"
    },
    {
      "inputs": [
        {
          "internalType": "address",
          "name": "owner",
          "type": "address"
        },
        {
          "internalType": "address",
          "name": "spender",
          "type": "address"
        }
      ],
      "name": "allowance",
      "outputs": [
        {
          "internalType": "uint256",
          "name": "",
          "type": "uint256"
        }
      ],
      "stateMutability": "view",
      "type": "function"
    },
    {
      "inputs": [
        {
          "internalType": "address",
          "name": "spender",
          "type": "address"
        },
        {
          "internalType": "uint256",
          "name": "amount",
          "type": "uint256"
        }
      ],
      "name": "approve",
      "outputs": [
        {
          "internalType": "bool",
          "name": "",
          "type": "bool"
        }
      ],
      "stateMutability": "nonpayable",
      "type": "function"
    },
    {
      "inputs": [
        {
          "internalType": "address",
          "name": "account",
          "type": "address"
        }
      ],
      "name": "balanceOf",
      "outputs": [
        {
          "internalType": "uint256",
          "name": "",
          "type": "uint256"
        }
      ],
      "stateMutability": "view",
      "type": "function"
    },
    {
      "inputs": [],
      "name": "decimals",
      "outputs": [
        {
          "internalType": "uint8",
          "name": "",
          "type": "uint8"
        }
      ],
      "stateMutability": "view",
      "type": "function"
    },
    {
      "inputs": [
        {
          "internalType": "address",
          "name": "spender",
          "type": "address"
        },
        {
          "internalType": "uint256",
          "name": "subtractedValue",
          "type": "uint256"
        }
      ],
      "name": "decreaseAllowance",
      "outputs": [
        {
          "internalType": "bool",
          "name": "",
          "type": "bool"
        }
      ],
      "stateMutability": "nonpayable",
      "type": "function"
    },
    {
      "inputs": [],
      "name": "fee_x",
      "outputs": [
        {
          "internalType": "uint256",
          "name": "",
          "type": "uint256"
        }
      ],
      "stateMutability": "view",
      "type": "function"
    },
    {
      "inputs": [],
      "name": "fee_y",
      "outputs": [
        {
          "internalType": "uint256",
          "name": "",
          "type": "uint256"
        }
      ],
      "stateMutability": "view",
      "type": "function"
    },
    {
      "inputs": [
        {
          "internalType": "address",
          "name": "spender",
          "type": "address"
        },
        {
          "internalType": "uint256",
          "name": "addedValue",
          "type": "uint256"
        }
      ],
      "name": "increaseAllowance",
      "outputs": [
        {
          "internalType": "bool",
          "name": "",
          "type": "bool"
        }
      ],
      "stateMutability": "nonpayable",
      "type": "function"
    },
    {
      "inputs": [],
      "name": "name",
      "outputs": [
        {
          "internalType": "string",
          "name": "",
          "type": "string"
        }
      ],
      "stateMutability": "view",
      "type": "function"
    },
    {
      "inputs": [
        {
          "internalType": "uint256",
          "name": "LPTokenAmount",
          "type": "uint256"
        },
        {
          "internalType": "uint256",
          "name": "minimumTokenXAmount",
          "type": "uint256"
        },
        {
          "internalType": "uint256",
          "name": "minimumTokenYAmount",
          "type": "uint256"
        }
      ],
      "name": "removeLiquidity",
      "outputs": [
        {
          "internalType": "uint256",
          "name": "rx",
          "type": "uint256"
        },
        {
          "internalType": "uint256",
          "name": "ry",
          "type": "uint256"
        }
      ],
      "stateMutability": "nonpayable",
      "type": "function"
    },
    {
      "inputs": [],
      "name": "reserve_x",
      "outputs": [
        {
          "internalType": "uint256",
          "name": "",
          "type": "uint256"
        }
      ],
      "stateMutability": "view",
      "type": "function"
    },
    {
      "inputs": [],
      "name": "reserve_y",
      "outputs": [
        {
          "internalType": "uint256",
          "name": "",
          "type": "uint256"
        }
      ],
      "stateMutability": "view",
      "type": "function"
    },
    {
      "inputs": [
        {
          "internalType": "uint256",
          "name": "y",
          "type": "uint256"
        }
      ],
      "name": "sqrt",
      "outputs": [
        {
          "internalType": "uint256",
          "name": "z",
          "type": "uint256"
        }
      ],
      "stateMutability": "pure",
      "type": "function"
    },
    {
      "inputs": [
        {
          "internalType": "uint256",
          "name": "tokenXAmount",
          "type": "uint256"
        },
        {
          "internalType": "uint256",
          "name": "tokenYAmount",
          "type": "uint256"
        },
        {
          "internalType": "uint256",
          "name": "tokenMinimumOutputAmount",
          "type": "uint256"
        }
      ],
      "name": "swap",
      "outputs": [
        {
          "internalType": "uint256",
          "name": "outputAmount",
          "type": "uint256"
        }
      ],
      "stateMutability": "nonpayable",
      "type": "function"
    },
    {
      "inputs": [],
      "name": "symbol",
      "outputs": [
        {
          "internalType": "string",
          "name": "",
          "type": "string"
        }
      ],
      "stateMutability": "view",
      "type": "function"
    },
    {
      "inputs": [],
      "name": "token_x",
      "outputs": [
        {
          "internalType": "address",
          "name": "",
          "type": "address"
        }
      ],
      "stateMutability": "view",
      "type": "function"
    },
    {
      "inputs": [],
      "name": "token_y",
      "outputs": [
        {
          "internalType": "address",
          "name": "",
          "type": "address"
        }
      ],
      "stateMutability": "view",
      "type": "function"
    },
    {
      "inputs": [],
      "name": "totalSupply",
      "outputs": [
        {
          "internalType": "uint256",
          "name": "",
          "type": "uint256"
        }
      ],
      "stateMutability": "view",
      "type": "function"
    },
    {
      "inputs": [
        {
          "internalType": "address",
          "name": "to",
          "type": "address"
        },
        {
          "internalType": "uint256",
          "name": "amount",
          "type": "uint256"
        }
      ],
      "name": "transfer",
      "outputs": [
        {
          "internalType": "bool",
          "name": "",
          "type": "bool"
        }
      ],
      "stateMutability": "nonpayable",
      "type": "function"
    },
    {
      "inputs": [
        {
          "internalType": "address",
          "name": "from",
          "type": "address"
        },
        {
          "internalType": "address",
          "name": "to",
          "type": "address"
        },
        {
          "internalType": "uint256",
          "name": "amount",
          "type": "uint256"
        }
      ],
      "name": "transferFrom",
      "outputs": [
        {
          "internalType": "bool",
          "name": "",
          "type": "bool"
        }
      ],
      "stateMutability": "nonpayable",
      "type": "function"
    }
  ],
  "bytecode": {
    "object": "0x60806040523480156200001157600080fd5b5060405162002174380380620021748339810160408190526200003491620001b9565b6040518060400160405280600381526020016244524d60e81b8152506040518060400160405280600b81526020016a222922a0a6afaa27a5a2a760a91b815250816003908162000085919062000296565b50600462000094828262000296565b505050806001600160a01b0316826001600160a01b031603620000f05760405162461bcd60e51b815260206004820152600f60248201526e73616d6520746f6b656e20782c207960881b60448201526064015b60405180910390fd5b6001600160a01b038216158015906200011157506001600160a01b03811615155b6200015f5760405162461bcd60e51b815260206004820152601960248201527f7a65726f206164647265737320746f6b656e2078206f722079000000000000006044820152606401620000e7565b600580546001600160a01b03199081163317909155600680546001600160a01b039485169083161790556007805492909316911617905562000362565b80516001600160a01b0381168114620001b457600080fd5b919050565b60008060408385031215620001cd57600080fd5b620001d8836200019c565b9150620001e8602084016200019c565b90509250929050565b634e487b7160e01b600052604160045260246000fd5b600181811c908216806200021c57607f821691505b6020821081036200023d57634e487b7160e01b600052602260045260246000fd5b50919050565b601f8211156200029157600081815260208120601f850160051c810160208610156200026c5750805b601f850160051c820191505b818110156200028d5782815560010162000278565b5050505b505050565b81516001600160401b03811115620002b257620002b2620001f1565b620002ca81620002c3845462000207565b8462000243565b602080601f831160018114620003025760008415620002e95750858301515b600019600386901b1c1916600185901b1785556200028d565b600085815260208120601f198616915b82811015620003335788860151825594840194600190910190840162000312565b5085821015620003525787850151600019600388901b60f8161c191681555b5050505050600190811b01905550565b611e0280620003726000396000f3fe608060405234801561001057600080fd5b50600436106101375760003560e01c8063616016ef116100b857806396ad6a311161007c57806396ad6a31146102895780639d9892cd1461029c578063a457c2d7146102af578063a9059cbb146102c2578063ca432722146102d5578063dd62ed3e146102de57600080fd5b8063616016ef14610214578063677342ce1461021d57806370a0823114610230578063857620e11461025957806395d89b411461028157600080fd5b8063313ce567116100ff578063313ce567146101cd57806339509351146101dc57806339af00ba146101ef5780633a0dba82146101f8578063422f10431461020157600080fd5b806306fdde031461013c578063095ea7b31461015a578063143cae491461017d57806318160ddd146101a857806323b872dd146101ba575b600080fd5b6101446102f1565b6040516101519190611a92565b60405180910390f35b61016d610168366004611ac3565b610383565b6040519015158152602001610151565b600754610190906001600160a01b031681565b6040516001600160a01b039091168152602001610151565b6002545b604051908152602001610151565b61016d6101c8366004611aed565b61039d565b60405160128152602001610151565b61016d6101ea366004611ac3565b6103c1565b6101ac60095481565b6101ac600b5481565b6101ac61020f366004611b29565b6103e3565b6101ac600a5481565b6101ac61022b366004611b55565b610a11565b6101ac61023e366004611b6e565b6001600160a01b031660009081526020819052604090205490565b61026c610267366004611b29565b610a81565b60408051928352602083019190915201610151565b610144610e0e565b600654610190906001600160a01b031681565b6101ac6102aa366004611b29565b610e1d565b61016d6102bd366004611ac3565b611421565b61016d6102d0366004611ac3565b61149c565b6101ac60085481565b6101ac6102ec366004611b89565b6114aa565b60606003805461030090611bbc565b80601f016020809104026020016040519081016040528092919081815260200182805461032c90611bbc565b80156103795780601f1061034e57610100808354040283529160200191610379565b820191906000526020600020905b81548152906001019060200180831161035c57829003601f168201915b5050505050905090565b6000336103918185856114d5565b60019150505b92915050565b6000336103ab8582856115f9565b6103b6858585611643565b506001949350505050565b6000336103918185856103d483836114aa565b6103de9190611c06565b6114d5565b60008084116104395760405162461bcd60e51b815260206004820152601a60248201527f746f6b656e58416d6f756e74206d75737420657863656564203000000000000060448201526064015b60405180910390fd5b600083116104895760405162461bcd60e51b815260206004820152601a60248201527f746f6b656e59416d6f756e74206d7573742065786365656420300000000000006044820152606401610430565b600654604051636eb1769f60e11b815233600482015230602482015285916001600160a01b03169063dd62ed3e90604401602060405180830381865afa1580156104d7573d6000803e3d6000fd5b505050506040513d601f19601f820116820180604052508101906104fb9190611c19565b10156105195760405162461bcd60e51b815260040161043090611c32565b600754604051636eb1769f60e11b815233600482015230602482015284916001600160a01b03169063dd62ed3e90604401602060405180830381865afa158015610567573d6000803e3d6000fd5b505050506040513d601f19601f8201168201806040525081019061058b9190611c19565b10156105a95760405162461bcd60e51b815260040161043090611c32565b6006546040516370a0823160e01b815233600482015285916001600160a01b0316906370a0823190602401602060405180830381865afa1580156105f1573d6000803e3d6000fd5b505050506040513d601f19601f820116820180604052508101906106159190611c19565b10156106335760405162461bcd60e51b815260040161043090611c69565b6007546040516370a0823160e01b815233600482015284916001600160a01b0316906370a0823190602401602060405180830381865afa15801561067b573d6000803e3d6000fd5b505050506040513d601f19601f8201168201806040525081019061069f9190611c19565b10156106bd5760405162461bcd60e51b815260040161043090611c69565b6006546040516370a0823160e01b81523060048201526001600160a01b03909116906370a0823190602401602060405180830381865afa158015610705573d6000803e3d6000fd5b505050506040513d601f19601f820116820180604052508101906107299190611c19565b6008556007546040516370a0823160e01b81523060048201526001600160a01b03909116906370a0823190602401602060405180830381865afa158015610774573d6000803e3d6000fd5b505050506040513d601f19601f820116820180604052508101906107989190611c19565b60095560006107a660025490565b6000036107c1576107ba61022b8587611caf565b90506108a4565b6000670de0b6b3a76400006008546107d860025490565b6107ea89670de0b6b3a7640000611caf565b6107f49190611caf565b6107fe9190611cc6565b6108089190611cc6565b90506000670de0b6b3a764000060095461082160025490565b61083389670de0b6b3a7640000611caf565b61083d9190611caf565b6108479190611cc6565b6108519190611cc6565b905080821115610880578092506009548660085461086f9190611caf565b6108799190611cc6565b96506108a1565b819250600854876009546108949190611caf565b61089e9190611cc6565b95505b50505b8281116108ff5760405162461bcd60e51b815260206004820152602360248201527f746f6b656e5f616d6f756e74203e206d696e696d756d4c50546f6b656e416d6f6044820152621d5b9d60ea1b6064820152608401610430565b6006546040516323b872dd60e01b81526001600160a01b03909116906323b872dd9061093390339030908a90600401611ce8565b6020604051808303816000875af1158015610952573d6000803e3d6000fd5b505050506040513d601f19601f820116820180604052508101906109769190611d0c565b61097f57600080fd5b6007546040516323b872dd60e01b81526001600160a01b03909116906323b872dd906109b390339030908990600401611ce8565b6020604051808303816000875af11580156109d2573d6000803e3d6000fd5b505050506040513d601f19601f820116820180604052508101906109f69190611d0c565b6109ff57600080fd5b610a0933826117a8565b949350505050565b60006003821115610a725750806000610a2b600283611cc6565b610a36906001611c06565b90505b81811015610a6c57905080600281610a518186611cc6565b610a5b9190611c06565b610a659190611cc6565b9050610a39565b50919050565b8115610a7c575060015b919050565b336000908152602081905260408120548190851115610af65760405162461bcd60e51b815260206004820152602b60248201527f52656d6f76654c697175696469747920657863656564732062616c616e63652060448201526a31b432b1b59032b93937b960a91b6064820152608401610430565b6006546040516370a0823160e01b81523060048201526001600160a01b03909116906370a0823190602401602060405180830381865afa158015610b3e573d6000803e3d6000fd5b505050506040513d601f19601f82011682018060405250810190610b629190611c19565b6008556007546040516370a0823160e01b81523060048201526001600160a01b03909116906370a0823190602401602060405180830381865afa158015610bad573d6000803e3d6000fd5b505050506040513d601f19601f82011682018060405250810190610bd19190611c19565b600955670de0b6b3a7640000610be660025490565b86600854670de0b6b3a7640000610bfd9190611caf565b610c079190611caf565b610c119190611cc6565b610c1b9190611cc6565b9150670de0b6b3a7640000610c2f60025490565b86600954670de0b6b3a7640000610c469190611caf565b610c509190611caf565b610c5a9190611cc6565b610c649190611cc6565b905083821015610c865760405162461bcd60e51b815260040161043090611d2e565b82811015610ca65760405162461bcd60e51b815260040161043090611d2e565b610cd360405180604001604052806002815260200161095960f21b815250683635c9adc5dea00000611868565b610d006040518060400160405280600681526020016509590b08095960d21b8152506008546009546118ad565b610d0a33866118f9565b60065460405163a9059cbb60e01b8152336004820152602481018490526001600160a01b039091169063a9059cbb906044016020604051808303816000875af1158015610d5b573d6000803e3d6000fd5b505050506040513d601f19601f82011682018060405250810190610d7f9190611d0c565b610d8857600080fd5b60075460405163a9059cbb60e01b8152336004820152602481018390526001600160a01b039091169063a9059cbb906044016020604051808303816000875af1158015610dd9573d6000803e3d6000fd5b505050506040513d601f19601f82011682018060405250810190610dfd9190611d0c565b610e0657600080fd5b935093915050565b60606004805461030090611bbc565b60008084118015610e2c575082155b80610e405750600083118015610e40575083155b610e4957600080fd5b600b546006546040516370a0823160e01b81523060048201526001600160a01b03909116906370a0823190602401602060405180830381865afa158015610e94573d6000803e3d6000fd5b505050506040513d601f19601f82011682018060405250810190610eb89190611c19565b610ec29190611d72565b600855600a546007546040516370a0823160e01b81523060048201526001600160a01b03909116906370a0823190602401602060405180830381865afa158015610f10573d6000803e3d6000fd5b505050506040513d601f19601f82011682018060405250810190610f349190611c19565b610f3e9190611d72565b6009556000808581036111b057600654604051636eb1769f60e11b815233600482015230602482015287916001600160a01b03169063dd62ed3e90604401602060405180830381865afa158015610f99573d6000803e3d6000fd5b505050506040513d601f19601f82011682018060405250810190610fbd9190611c19565b1015610fdb5760405162461bcd60e51b815260040161043090611c32565b84600954610fe99190611c06565b915081600954600854610ffc9190611caf565b6110069190611cc6565b90506103e8816008546110199190611d72565b611025906103e7611caf565b61102f9190611cc6565b92506103e8816008546110429190611d72565b61104c9190611cc6565b600b600082825461105d9190611c06565b9091555050838310156110ad5760405162461bcd60e51b81526020600482015260186024820152771d1bdad95b935a5b9a5b5d5b53dd5d1c1d5d105b5bdd5b9d60421b6044820152606401610430565b6007546040516323b872dd60e01b81526001600160a01b03909116906323b872dd906110e190339030908a90600401611ce8565b6020604051808303816000875af1158015611100573d6000803e3d6000fd5b505050506040513d601f19601f820116820180604052508101906111249190611d0c565b61112d57600080fd5b60065460405163a9059cbb60e01b8152336004820152602481018590526001600160a01b039091169063a9059cbb906044016020604051808303816000875af115801561117e573d6000803e3d6000fd5b505050506040513d601f19601f820116820180604052508101906111a29190611d0c565b6111ab57600080fd5b611418565b8460000361141857600754604051636eb1769f60e11b815233600482015230602482015286916001600160a01b03169063dd62ed3e90604401602060405180830381865afa158015611206573d6000803e3d6000fd5b505050506040513d601f19601f8201168201806040525081019061122a9190611c19565b10156112485760405162461bcd60e51b815260040161043090611c32565b856008546112569190611c06565b9050806009546008546112699190611caf565b6112739190611cc6565b91506103e8826009546112869190611d72565b611292906103e7611caf565b61129c9190611cc6565b92506103e8826009546112af9190611d72565b6112b99190611cc6565b600a60008282546112ca9190611c06565b90915550508383101561131a5760405162461bcd60e51b81526020600482015260186024820152771d1bdad95b935a5b9a5b5d5b53dd5d1c1d5d105b5bdd5b9d60421b6044820152606401610430565b6006546040516323b872dd60e01b81526001600160a01b03909116906323b872dd9061134e90339030908b90600401611ce8565b6020604051808303816000875af115801561136d573d6000803e3d6000fd5b505050506040513d601f19601f820116820180604052508101906113919190611d0c565b61139a57600080fd5b60075460405163a9059cbb60e01b8152336004820152602481018590526001600160a01b039091169063a9059cbb906044016020604051808303816000875af11580156113eb573d6000803e3d6000fd5b505050506040513d601f19601f8201168201806040525081019061140f9190611d0c565b61141857600080fd5b50509392505050565b6000338161142f82866114aa565b90508381101561148f5760405162461bcd60e51b815260206004820152602560248201527f45524332303a2064656372656173656420616c6c6f77616e63652062656c6f77604482015264207a65726f60d81b6064820152608401610430565b6103b682868684036114d5565b600033610391818585611643565b6001600160a01b03918216600090815260016020908152604080832093909416825291909152205490565b6001600160a01b0383166115375760405162461bcd60e51b8152602060048201526024808201527f45524332303a20617070726f76652066726f6d20746865207a65726f206164646044820152637265737360e01b6064820152608401610430565b6001600160a01b0382166115985760405162461bcd60e51b815260206004820152602260248201527f45524332303a20617070726f766520746f20746865207a65726f206164647265604482015261737360f01b6064820152608401610430565b6001600160a01b0383811660008181526001602090815260408083209487168084529482529182902085905590518481527f8c5be1e5ebec7d5bd14f71427d1e84f3dd0314c0f7b2291e5b200ac8c7c3b925910160405180910390a3505050565b600061160584846114aa565b9050600019811461163d57818110156116305760405162461bcd60e51b815260040161043090611c32565b61163d84848484036114d5565b50505050565b6001600160a01b0383166116a75760405162461bcd60e51b815260206004820152602560248201527f45524332303a207472616e736665722066726f6d20746865207a65726f206164604482015264647265737360d81b6064820152608401610430565b6001600160a01b0382166117095760405162461bcd60e51b815260206004820152602360248201527f45524332303a207472616e7366657220746f20746865207a65726f206164647260448201526265737360e81b6064820152608401610430565b6001600160a01b038316600090815260208190526040902054818110156117425760405162461bcd60e51b815260040161043090611c69565b6001600160a01b03848116600081815260208181526040808320878703905593871680835291849020805487019055925185815290927fddf252ad1be2c89b69c2b068fc378daa952ba7f163c4a11628f55a4df523b3ef910160405180910390a361163d565b6001600160a01b0382166117fe5760405162461bcd60e51b815260206004820152601f60248201527f45524332303a206d696e7420746f20746865207a65726f2061646472657373006044820152606401610430565b80600260008282546118109190611c06565b90915550506001600160a01b038216600081815260208181526040808320805486019055518481527fddf252ad1be2c89b69c2b068fc378daa952ba7f163c4a11628f55a4df523b3ef910160405180910390a35b5050565b611864828260405160240161187e929190611d85565b60408051601f198184030181529190526020810180516001600160e01b03166309710a9d60e41b179052611a2b565b6118f48383836040516024016118c593929190611da7565b60408051601f198184030181529190526020810180516001600160e01b031663969cdd0360e01b179052611a2b565b505050565b6001600160a01b0382166119595760405162461bcd60e51b815260206004820152602160248201527f45524332303a206275726e2066726f6d20746865207a65726f206164647265736044820152607360f81b6064820152608401610430565b6001600160a01b038216600090815260208190526040902054818110156119cd5760405162461bcd60e51b815260206004820152602260248201527f45524332303a206275726e20616d6f756e7420657863656564732062616c616e604482015261636560f01b6064820152608401610430565b6001600160a01b0383166000818152602081815260408083208686039055600280548790039055518581529192917fddf252ad1be2c89b69c2b068fc378daa952ba7f163c4a11628f55a4df523b3ef910160405180910390a3505050565b80516a636f6e736f6c652e6c6f67602083016000808483855afa5050505050565b6000815180845260005b81811015611a7257602081850181015186830182015201611a56565b506000602082860101526020601f19601f83011685010191505092915050565b602081526000611aa56020830184611a4c565b9392505050565b80356001600160a01b0381168114610a7c57600080fd5b60008060408385031215611ad657600080fd5b611adf83611aac565b946020939093013593505050565b600080600060608486031215611b0257600080fd5b611b0b84611aac565b9250611b1960208501611aac565b9150604084013590509250925092565b600080600060608486031215611b3e57600080fd5b505081359360208301359350604090920135919050565b600060208284031215611b6757600080fd5b5035919050565b600060208284031215611b8057600080fd5b611aa582611aac565b60008060408385031215611b9c57600080fd5b611ba583611aac565b9150611bb360208401611aac565b90509250929050565b600181811c90821680611bd057607f821691505b602082108103610a6c57634e487b7160e01b600052602260045260246000fd5b634e487b7160e01b600052601160045260246000fd5b8082018082111561039757610397611bf0565b600060208284031215611c2b57600080fd5b5051919050565b6020808252601d908201527f45524332303a20696e73756666696369656e7420616c6c6f77616e6365000000604082015260600190565b60208082526026908201527f45524332303a207472616e7366657220616d6f756e7420657863656564732062604082015265616c616e636560d01b606082015260800190565b808202811582820484141761039757610397611bf0565b600082611ce357634e487b7160e01b600052601260045260246000fd5b500490565b6001600160a01b039384168152919092166020820152604081019190915260600190565b600060208284031215611d1e57600080fd5b81518015158114611aa557600080fd5b60208082526024908201527f52656d6f76654c6971756964697479206d696e696d756d2072657475726e2065604082015263393937b960e11b606082015260800190565b8181038181111561039757610397611bf0565b604081526000611d986040830185611a4c565b90508260208301529392505050565b606081526000611dba6060830186611a4c565b6020830194909452506040015291905056fea2646970667358221220b4f0352cbbba70692508e82b80b9f5fa344a60bbdaa560155cf388619fb6cffc64736f6c63430008130033",
    "linkReferences": {}
  },
  "methodIdentifiers": {
    "addLiquidity(uint256,uint256,uint256)": "422f1043",
    "allowance(address,address)": "dd62ed3e",
    "approve(address,uint256)": "095ea7b3",
    "balanceOf(address)": "70a08231",
    "decimals()": "313ce567",
    "decreaseAllowance(address,uint256)": "a457c2d7",
    "fee_x()": "3a0dba82",
    "fee_y()": "616016ef",
    "increaseAllowance(address,uint256)": "39509351",
    "name()": "06fdde03",
    "removeLiquidity(uint256,uint256,uint256)": "857620e1",
    "reserve_x()": "ca432722",
    "reserve_y()": "39af00ba",
    "sqrt(uint256)": "677342ce",
    "swap(uint256,uint256,uint256)": "9d9892cd",
    "symbol()": "95d89b41",
    "token_x()": "96ad6a31",
    "token_y()": "143cae49",
    "totalSupply()": "18160ddd",
    "transfer(address,uint256)": "a9059cbb",
    "transferFrom(address,address,uint256)": "23b872dd"
  },
  "id": 21
}